:100000000C9486000C949F170C94E1170C94A70095
:100010000C94A7000C94A7000C94A7000C94A700C4
:100020000C94A7000C94A7000C94A7000C94A700B4
:100030000C94A7000C94A7000C94A7000C94A700A4
:100040000C94A7000C94A7000C94A7000C94A70094
:100050000C94A7000C94A7000C94A7000C94A70084
:100060000C94A7000C9468170C94A7000C94A7009C
:100070000C94A7000C94A7000C94A7000C94A70064
:100080000C94A7000C94A7000C94A7000C94A70054
:100090000C94A7000C94A7000C94A7000C94A70044
:1000A0000C94A7000C94A7000C94A7000C94A70034
:1000B0000C94A7000C94A7000C94A7000C94A70024
:1000C0000C94A7000C94A7000C94A7000C94A70014
:1000D0000C94A7000C94A7000C94A7000C94A70004
:1000E0000C94A7000C9473120C944B110C946E1288
:1000F0000C9447110C9454110C94E8120C948B112D
:100100000C9480110C945E120C944F1111241FBE9C
:10011000CFEFD1E2DEBFCDBF00E00CBF13E0A0E027
:10012000B2E0EEECF7E300E00BBF02C007900D92E7
:10013000AC3CB107D9F729E0ACECB3E001C01D92AB
:10014000A735B207E1F70E94FF160C94E51B0C944B
:100150000000CF93DF93CDB7DEB785EC90E0FC01D4
:10016000108284EC90E022E0FC01208381EC90E09E
:1001700028E9FC01208382EC90E026E0FC0120834A
:100180000000DF91CF910895CF93DF931F92CDB7F9
:10019000DEB78983000080EC90E0FC018081882F2D
:1001A00090E080729927892BB1F386EC90E0298149
:1001B000FC01208300000F90DF91CF910895CF9331
:1001C000DF931F921F92CDB7DEB79A8389830BC04E
:1001D00089819A819C012F5F3F4F3A832983FC01DB
:1001E00080810E94C40089819A81FC0180818823DA
:1001F00079F700000F900F90DF91CF910895CF9382
:10020000DF93CDB7DEB7000080EC90E0FC01808189
:100210008823D4F786EC90E0FC018081DF91CF91B8
:100220000895CF93DF93CDB7DEB76C970FB6F894F0
:10023000DEBF0FBECDBF82E091E0FC01208182E0F5
:1002400091E02068FC01208380E090E0A0E8BFE31B
:100250008F87988BA98BBA8B20E030E04AE753E474
:100260006F85788989899A890E943D1ADC01CB01C2
:100270008B8B9C8BAD8BBE8B20E030E040E85FE346
:100280006B897C898D899E890E94D91888232CF4DA
:1002900081E090E0988F8F8B3FC020E03FEF4FE7E9
:1002A00057E46B897C898D899E890E94381A1816BB
:1002B0004CF520E030E040E251E46F85788989898F
:1002C0009A890E943D1ADC01CB01BC01CD010E943C
:1002D0005719DC01CB01988F8F8B0FC089E190E01B
:1002E0009A8F898F898D9A8D0197F1F79A8F898FCF
:1002F0008F89988D0197988F8F8B8F89988D892BF7
:1003000069F714C06B897C898D899E890E94571971
:10031000DC01CB01988F8F8B8F89988D9C8F8B8F71
:100320008B8D9C8D0197F1F79C8F8B8F82E091E0F4
:10033000FC01208182E091E02F77FC01208380E0A6
:1003400090E0A0E8BFE389839A83AB83BC8320E07D
:1003500030E04AE753E469817A818B819C810E9475
:100360003D1ADC01CB018D839E83AF83B88720E0EB
:1003700030E040E85FE36D817E818F8198850E9447
:10038000D91888232CF481E090E09A8789873FC0B0
:1003900020E03FEF4FE757E46D817E818F819885A4
:1003A0000E94381A18164CF520E030E040E251E483
:1003B00069817A818B819C810E943D1ADC01CB018D
:1003C000BC01CD010E945719DC01CB019A878987B6
:1003D0000FC089E190E09C878B878B859C85019776
:1003E000F1F79C878B8789859A8501979A878987FA
:1003F00089859A85892B69F714C06D817E818F81EB
:1004000098850E945719DC01CB019A8789878985D5
:100410009A859E878D878D859E850197F1F79E87AA
:100420008D8700006C960FB6F894DEBF0FBECDBF6F
:10043000DF91CF910895CF93DF93CDB7DEB76C975F
:100440000FB6F894DEBF0FBECDBF85E091E0FC0192
:10045000208185E091E02068FC01208380E090E02D
:10046000A0E8BFE38F87988BA98BBA8B20E030E0A0
:100470004AE753E46F85788989899A890E943D1AF1
:10048000DC01CB018B8B9C8BAD8BBE8B20E030E0F5
:1004900040E85FE36B897C898D899E890E94D91829
:1004A00088232CF481E090E0988F8F8B3FC020E070
:1004B0003FEF4FE757E46B897C898D899E890E94C5
:1004C000381A18164CF520E030E040E251E46F8510
:1004D000788989899A890E943D1ADC01CB01BC0187
:1004E000CD010E945719DC01CB01988F8F8B0FC073
:1004F00089E190E09A8F898F898D9A8D0197F1F724
:100500009A8F898F8F89988D0197988F8F8B8F897C
:10051000988D892B69F714C06B897C898D899E8998
:100520000E945719DC01CB01988F8F8B8F89988D92
:100530009C8F8B8F8B8D9C8D0197F1F79C8F8B8F70
:1005400085E091E0FC01208185E091E02F77FC01BE
:10055000208380E090E0A0E8BFE389839A83AB83A7
:10056000BC8320E030E04AE753E469817A818B81E3
:100570009C810E943D1ADC01CB018D839E83AF8359
:10058000B88720E030E040E85FE36D817E818F81B5
:1005900098850E94D91888232CF481E090E09A87EE
:1005A00089873FC020E03FEF4FE757E46D817E81B0
:1005B0008F8198850E94381A18164CF520E030E09B
:1005C00040E251E469817A818B819C810E943D1ACD
:1005D000DC01CB01BC01CD010E945719DC01CB012C
:1005E0009A8789870FC089E190E09C878B878B85EC
:1005F0009C850197F1F79C878B8789859A85019760
:100600009A87898789859A85892B69F714C06D81B6
:100610007E818F8198850E945719DC01CB019A87D2
:10062000898789859A859E878D878D859E85019787
:10063000F1F79E878D8700006C960FB6F894DEBFA9
:100640000FBECDBFDF91CF910895CF93DF931F925F
:10065000CDB7DEB7898388E091E02981FC01208352
:1006600082E091E0FC01208182E091E02F7DFC019D
:10067000208382E091E0FC01208182E091E02F7BE9
:10068000FC0120830E94110100000F90DF91CF91A7
:100690000895CF93DF931F92CDB7DEB7898388E0AB
:1006A00091E02981FC01208382E091E0FC0120811E
:1006B00082E091E02062FC01208382E091E0FC0175
:1006C000208182E091E02F7BFC0120830E941101B8
:1006D00000000F90DF91CF910895CF93DF93CDB7B6
:1006E000DEB781E00E9425030000DF91CF910895DD
:1006F000CF93DF931F921F92CDB7DEB79A83898382
:1007000011C089819A81FC018081882359F08981F7
:100710009A819C012F5F3F4F3A832983FC0180819E
:100720000E94490389819A81FC018081882349F7CD
:100730000F900F90DF91CF910895CF93DF931F9289
:10074000CDB7DEB789838BE091E02981FC0120835E
:1007500085E091E0FC01208185E091E02F7DFC01A6
:10076000208385E091E0FC01208185E091E02F7BF2
:10077000FC0120830E941B0200000F90DF91CF91AB
:100780000895CF93DF931F92CDB7DEB789838BE0B7
:1007900091E02981FC01208385E091E0FC0120812A
:1007A00085E091E02062FC01208385E091E0FC017E
:1007B000208185E091E02F7BFC0120830E941B02B9
:1007C00000000F90DF91CF910895CF93DF93CDB7C5
:1007D000DEB781E00E949D030000DF91CF91089574
:1007E000CF93DF931F921F92CDB7DEB79A83898391
:1007F00011C089819A81FC018081882359F0898107
:100800009A819C012F5F3F4F3A832983FC018081AD
:100810000E94C10389819A81FC018081882349F764
:100820000F900F90DF91CF910895CF93DF93CDB7C5
:10083000DEB7A0970FB6F894DEBF0FBECDBF87E03E
:1008400091E02FEFFC0120838AE091E02FEFFC0183
:10085000208384E091E020EEFC01208380E090E0A2
:10086000A0EAB1E48B8B9C8BAD8BBE8B20E030E09B
:100870004AE753E46B897C898D899E890E943D1AE1
:10088000DC01CB018F8B988FA98FBA8F20E030E0ED
:1008900040E85FE36F89788D898D9A8D0E94D91821
:1008A00088232CF481E090E09C8F8B8F3FC020E068
:1008B0003FEF4FE757E46F89788D898D9A8D0E94BD
:1008C000381A18164CF520E030E040E251E46B890C
:1008D0007C898D899E890E943D1ADC01CB01BC0177
:1008E000CD010E945719DC01CB019C8F8B8F0FC06B
:1008F00089E190E09E8F8D8F8D8D9E8D0197F1F710
:100900009E8F8D8F8B8D9C8D01979C8F8B8F8B8D68
:100910009C8D892B69F714C06F89788D898D9A8D8C
:100920000E945719DC01CB019C8F8B8F8B8D9C8D86
:1009300098A38F8F8F8D98A10197F1F798A38F8F30
:1009400088E30E94250388E30E949D038CE00E94B7
:1009500025038CE00E949D030E946D030E94E50325
:1009600080E090E0A0E0B0E48D839E83AF83B88701
:1009700020E030E04AE753E46D817E818F819885E5
:100980000E943D1ADC01CB0189879A87AB87BC871F
:1009900020E030E040E85FE369857A858B859C85BF
:1009A0000E94D91888232CF481E090E09E878D87DF
:1009B0003FC020E03FEF4FE757E469857A858B859C
:1009C0009C850E94381A18164CF520E030E040E271
:1009D00051E46D817E818F8198850E943D1ADC01F2
:1009E000CB01BC01CD010E945719DC01CB019E87D0
:1009F0008D870FC089E190E0988B8F878F859889CC
:100A00000197F1F7988B8F878D859E8501979E873B
:100A10008D878D859E85892B69F714C069857A85B8
:100A20008B859C850E945719DC01CB019E878D87A1
:100A30008D859E859A8B898B89899A890197F1F793
:100A40009A8B898B88E091E0FC0110828BE091E029
:100A5000FC01108286E00E94250386E00E949D032F
:100A60008AE092E09A83898389819A810E9478033F
:100A700087E192E09C838B838B819C810E94F003B1
:100A80000000A0960FB6F894DEBF0FBECDBFDF9179
:100A9000CF910895CF93DF93CDB7DEB764970FB6AC
:100AA000F894DEBF0FBECDBF9C8B8B8B9E012D5F5C
:100AB0003F4F8B899C894AE050E0B9010E943A1B64
:100AC000CE0103969A8389830BC089819A81FC01A8
:100AD00080810E94490389819A8101969A83898342
:100AE00089819A81FC018081882379F700006496CE
:100AF0000FB6F894DEBF0FBECDBFDF91CF91089542
:100B0000CF93DF93CDB7DEB764970FB6F894DEBF0F
:100B10000FBECDBF9C8B8B8B9E012D5F3F4F8B8972
:100B20009C894AE050E0B9010E943A1BCE0103962D
:100B30009A8389830BC089819A81FC0180810E94FC
:100B4000C10389819A8101969A83898389819A81D7
:100B5000FC018081882379F7000064960FB6F89431
:100B6000DEBF0FBECDBFDF91CF910895CF93DF934E
:100B7000CDB7DEB78AE290E0FC0120818AE290E006
:100B8000206FFC0120838DE290E0FC0120818DE24A
:100B900090E0237EFC0120838EE290E0FC01208126
:100BA0008EE290E02C61FC0120830000DF91CF9168
:100BB0000895CF93DF93CDB7DEB7AE970FB6F89415
:100BC000DEBF0FBECDBF8CE0ECE1F2E0DE0193961C
:100BD00001900D928A95E1F7198265C18BE290E050
:100BE000FC018081482F8981282F30E080E190E04E
:100BF00002C0880F991F2A95E2F78095242F282399
:100C00008BE290E0FC01208380E090E0A0EAB0E479
:100C10008B839C83AD83BE832BEA3AEA4AEA5EE388
:100C20006B817C818D819E810E943D1ADC01CB010C
:100C30008F839887A987BA8720E030E040E85EE399
:100C40006B817C818D819E810E943D1ADC01CB01EC
:100C50008B879C87AD87BE8720E030E040E85FE36C
:100C60006F81788589859A850E94D91888231CF41C
:100C700081E08F87B2C020E03FEF4FE757E46B85FC
:100C80007C858D859E850E94381A18160CF07BC0D5
:100C900020E030E04AE754E46B817C818D819E81C5
:100CA0000E94DE18DC01CB01888B998BAA8BBB8B51
:100CB00020E030E04AE753E4688979898A899B8992
:100CC0000E943D1ADC01CB018C8B9D8BAE8BBF8BC0
:100CD00020E030E040E85FE36C897D898E899F8960
:100CE0000E94D91888232CF481E090E0998F888F96
:100CF0003FC020E03FEF4FE757E46C897D898E8944
:100D00009F890E94381A18164CF520E030E040E226
:100D100051E4688979898A899B890E943D1ADC019E
:100D2000CB01BC01CD010E945719DC01CB01998F89
:100D3000888F0FC089E190E09B8F8A8F8A8D9B8D71
:100D40000197F1F79B8F8A8F888D998D0197998FE5
:100D5000888F888D998D892B69F73FC06C897D8933
:100D60008E899F890E945719DC01CB01998F888F4A
:100D7000888D998D9D8F8C8F8C8D9D8D0197F1F72E
:100D80009D8F8C8F2AC020E030E04FE753E46F81C5
:100D9000788589859A850E94381A1816ACF46B8577
:100DA0007C858D859E850E945719DC01CB019F8F24
:100DB0008E8F8E8D9F8D99A388A388A199A101976D
:100DC000F1F799A388A30FC06F81788589859A85EB
:100DD0000E945719DC01CB018F878F858AA38AA1D6
:100DE0008A95F1F78AA31A8242C08CE290E0FC0156
:100DF0008081882F90E02A81222F30E02E5F3F4FA4
:100E000002C0959587952A95E2F781709927892BDD
:100E100059F58BE290E0FC018081482F8981282FD1
:100E200030E080E190E002C0880F991F2A95E2F738
:100E3000242F282B8BE290E0FC0120838981282F2E
:100E400030E08A81482F50E0C901880F991F820F36
:100E5000931F9E012F5F3F4F820F931F840F951F9B
:100E60008296FC01808124C08A818F5F8A838A8177
:100E7000833008F4BACF8BE290E0FC018081482FE8
:100E80008981282F30E080E190E002C0880F991F0F
:100E90002A95E2F7242F282B8BE290E0FC01208397
:100EA00089818F5F89838981843008F497CE80E0BF
:100EB000AE960FB6F894DEBF0FBECDBFDF91CF91D7
:100EC0000895CF93DF9300D000D0CDB7DEB7F8946C
:100ED0000E94A9000E9421130E94941680E390E0D2
:100EE00021E0FC01208381E091E020EEFC012083E1
:100EF00082E091E02FE1FC0120830E9415040E9412
:100F0000B60581E290E02FEFFC01208382E290E0C1
:100F1000FC0110821A82198284C089819A8101960B
:100F20009E838D838091020290910302A09104021E
:100F3000B0910502BC01CD010E945719DC01CB0123
:100F40009C838B838D819E818230910519F003975C
:100F5000E1F040C08091020290910302A09104024E
:100F6000B091050220E030E040E45FE3BC01CD0138
:100F70000E943D1ADC01CB01BC01CD010E94571932
:100F8000DC01CB019C838B8325C080910202909170
:100F90000302A0910402B091050220E030E040E499
:100FA0005FE3BC01CD010E943D1ADC01CB0120E0D2
:100FB00030E040E45FE3BC01CD010E943D1ADC015A
:100FC000CB01BC01CD010E945719DC01CB019C83F0
:100FD0008B8300002D8189819A81880F991F880F4A
:100FE000991F8C5F974FFC01208389819A81880F1C
:100FF000991F880F991F8A5F974F2B813C81FC01B5
:101000003183208389819A81880F991F880F991FC6
:101010008B5F974FFC01108289819A8101969A8398
:10102000898389819A8103970CF477CF78940000A3
:1010300026960FB6F894DEBF0FBECDBFDF91CF91DD
:101040000895CF93DF93CDB7DEB7CF55D1090FB653
:10105000F894DEBF0FBECDBF1D820E946D0388E2F3
:1010600092E00E9478030E94FF008E838E8180535D
:101070008D838D81882321F08D81843008F4F1C027
:101080000E946D038FE292E00E94780380E090E07E
:10109000AAE7B4E48B8F9C8FAD8FBE8F20E030E049
:1010A0004AE753E46B8D7C8D8D8D9E8D0E943D1A99
:1010B000DC01CB018F8F98A3A9A3BAA320E030E075
:1010C00040E85FE36F8D78A189A19AA10E94D918A9
:1010D00088232CF481E090E09CA38BA33FC020E008
:1010E0003FEF4FE757E46F8D78A189A19AA10E9445
:1010F000381A18164CF520E030E040E251E46B8DD0
:101100007C8D8D8D9E8D0E943D1ADC01CB01BC0132
:10111000CD010E945719DC01CB019CA38BA30FC00A
:1011200089E190E09EA38DA38DA19EA10197F1F787
:101130009EA38DA38BA19CA101979CA38BA38BA1A4
:101140009CA1892B69F714C06F8D78A189A19AA100
:101150000E945719DC01CB019CA38BA38BA19CA1FE
:1011600098A78FA38FA198A50197F1F798A78FA3B0
:101170000E946D038DE392E00E94780380E090E08E
:10118000AAE7B4E48D879E87AF87B88B20E030E074
:101190004AE753E46D857E858F8598890E943D1AC4
:1011A000DC01CB01898B9A8BAB8BBC8B20E030E0D0
:1011B00040E85FE369897A898B899C890E94D91804
:1011C00088232CF481E090E09E8B8D8B3FC020E043
:1011D0003FEF4FE757E469897A898B899C890E94A0
:1011E000381A18164CF520E030E040E251E46D85E5
:1011F0007E858F8598890E943D1ADC01CB01BC0158
:10120000CD010E945719DC01CB019E8B8D8B0FC045
:1012100089E190E0988F8F8B8F89988D0197F1F7F6
:10122000988F8F8B8D899E8901979E8B8D8B8D8951
:101230009E89892B69F7CAC069897A898B899C89BB
:101240000E945719DC01CB019E8B8D8B8D899E8965
:101250009A8F898F898D9A8D0197F1F79A8F898F4F
:10126000B5C08D81882F90E00197880F991F880F56
:10127000991F8C5F974F98878F830E946D038F8192
:101280009885FC0181818A3028F087E492E00E94F1
:1012900078039CC085E592E00E9478038D81882FB9
:1012A00090E00E944A0580E090E0A8ECB2E489A7B3
:1012B0009AA7ABA7BCA720E030E04AE753E469A5B2
:1012C0007AA58BA59CA50E943D1ADC01CB018DA7B8
:1012D0009EA7AFA7B8AB20E030E040E85FE36DA584
:1012E0007EA58FA598A90E94D91888232CF481E0A7
:1012F00090E09AAB89AB3FC020E03FEF4FE757E467
:101300006DA57EA58FA598A90E94381A18164CF5D0
:1013100020E030E040E251E469A57AA58BA59CA5C8
:101320000E943D1ADC01CB01BC01CD010E9457197E
:10133000DC01CB019AAB89AB0FC089E190E09CAB9B
:101340008BAB8BA99CA90197F1F79CAB8BAB89A9BF
:101350009AA901979AAB89AB89A99AA9892B69F7B0
:1013600014C06DA57EA58FA598A90E945719DC0110
:10137000CB019AAB89AB89A99AA99EAB8DAB8DA9FC
:101380009EA90197F1F79EAB8DAB0E946D03000003
:101390008D81882F90E00197880F991F880F991FE2
:1013A0008C5F974F9A8789878DE592E00E9478033A
:1013B000CE018B5B9F4F24E1FC01322F11923A95B5
:1013C000E9F71A8219821C821B8201C046CE0E9454
:1013D000FF008B8789819A81892B31F40E946D03EC
:1013E00081E090E09A8389838B819C814397DCF430
:1013F0008B819C819C012F5F3F4F3C832B839E01FF
:101400002B5B3F4F820F931F2B85FC0120839E0196
:101410002B5B3F4F8B819C81820F931FFC011082BD
:101420008B850E9449038B858A3021F08B858D3016
:1014300009F0CDCF0E946D038CE692E00E94780304
:10144000CE01875A9F4F27E0FC01322F11923A9527
:10145000E9F71C821B821A8219820E94FF008C8786
:1014600089819A81892B31F40E946D0381E090E09B
:101470009A8389838B819C810697DCF48B819C8184
:101480009C012F5F3F4F3C832B839E01275A3F4F88
:10149000820F931F2C85FC0120839E01275A3F4F0A
:1014A0008B819C81820F931FFC0110828AE20E9433
:1014B00049038C858A3021F08C858D3009F0CDCFA1
:1014C0000E946D0380910002909101022091000220
:1014D00030910102AC0164E2629FC001639F900DF4
:1014E000112484539C4FFC015183408320910002BE
:1014F0003091010244E2429FC001439F900D1124AC
:101500008B529C4F29853A85FC01318320832091A1
:1015100000023091010244E2429FC001439F900DBE
:10152000112481519C4F21E0FC0120832091000275
:101530003091010244E2429FC001439F900D11246B
:101540000F9684539C4F9E012B5B3F4F44E150E02C
:10155000B9010E942B1B209100023091010244E24C
:10156000429FC001439F900D1124029684539C4FCB
:101570009E01275A3F4F47E050E0B9010E942B1BC4
:1015800089859A85FC01818121E0280F89859A85CA
:10159000FC012183809100029091010201969093B9
:1015A0000102809300028EE792E00E94780380E0BF
:1015B00090E8ABE3B4E48FAB98AFA9AFBAAF20E04B
:1015C00030E04AE753E46FA978AD89AD9AAD0E9447
:1015D0003D1ADC01CB018BAF9CAFADAFBEAF20E0BD
:1015E00030E040E85FE36BAD7CAD8DAD9EAD0E9419
:1015F000D918882344F421E030E0CE01CF96FC01D5
:10160000318320835FC020E03FEF4FE757E46BADAD
:101610007CAD8DAD9EAD0E94381A18160CF044C0FA
:1016200020E030E040E251E46FA978AD89AD9AAD99
:101630000E943D1ADC01CB01BC01CD010E9457196B
:10164000DC01CB019E01215C3F4FF9019183808336
:1016500023C0CE018F5B9F4F29E130E0FC01318335
:101660002083CE018F5B9F4FFC0180819181019788
:10167000F1F79E012F5B3F4FF90191838083CE01EB
:10168000CF96FC01808191819C0121503109CE01CE
:10169000CF96FC0131832083CE01CF96FC0180815F
:1016A0009181892BB1F628C06BAD7CAD8DAD9EAD1F
:1016B0000E945719DC01CB019E01215C3F4FF901CB
:1016C00091838083CE018D5B9F4F9E01215C3F4FB4
:1016D000F90120813181FC0131832083CE018D5BB2
:1016E0009F4FFC01808191810197F1F79E012D5B55
:1016F0003F4FF901918380830E946D038BE892E054
:101700000E94780380E090E0C15ADF4F0FB6F89452
:10171000DEBF0FBECDBFDF91CF910895CF93DF9392
:10172000CDB7DEB780E090E00E942918DC01CB0144
:10173000BC01CD01DF91CF910895CF93DF9300D00D
:1017400000D000D01F92CDB7DEB79A8789871A8262
:10175000198241C029813A8144E2429FC001439FDE
:10176000900D112481519C4FFC018081882371F1DF
:1017700029813A8144E2429FC001439F900D112488
:10178000029684539C4F29853A85B9010E94221BF9
:10179000892BE1F429813A8144E2429FC001439FB1
:1017A000900D112489529C4FFC0180819181A2816E
:1017B000B38120E030E0A901BC01CD010E94D9181D
:1017C000181614F081E06AC080E068C089819A81AF
:1017D00001969A83898389819A814E970CF4BACFB6
:1017E0000E948E0BDC01CB018D839E83AF83B88773
:1017F0001C821B824DC02B813C81C901880F991F1F
:10180000880F991F880F991F821B930B880F991FB0
:10181000835E974FFC0180818823A9F12B813C8155
:10182000C901880F991F880F991F880F991F821B64
:10183000930B880F991F805F974F29853A85B901CF
:101840000E94221B892BF9F42B813C81C901880F4E
:10185000991F880F991F880F991F821B930B880F60
:10186000991F895E974FFC0180819181A281B3818C
:101870002D813E814F815885281739074A075B071C
:1018800010F481E00BC08B819C8101969C838B833B
:101890008B819C8144970CF4AECF80E02A960FB6E2
:1018A000F894DEBF0FBECDBFDF91CF910895CF93E7
:1018B000DF931F92CDB7DEB789830E946D038981C4
:1018C000813031F4809150098F5F8093500905C0B9
:1018D000809151098F5F8093510980914C099091BB
:1018E0004D09019690934D0980934C0980914C09C4
:1018F00090914D090E944A0588E992E00E94780380
:1019000000000F90DF91CF910895CF93DF93CDB773
:10191000DEB70E946D0380914C0990914D09892B8F
:1019200071F080914C0990914D09019790934D0968
:1019300080934C09809152098F5F80935209809166
:101940004C0990914D090E944A0588E992E00E9455
:1019500078030000DF91CF910895CF93DF93CDB747
:10196000DEB762970FB6F894DEBF0FBECDBF9A8B7D
:10197000898B1A8219821AC00E94F51A2AE030E077
:10198000B9010E943C18AC0189819A81880F991F86
:101990009E012F5F3F4F820F931F0496FC015183DE
:1019A000408389819A8101969A83898389819A816A
:1019B000069714F31C821B821DC08B819C81880FAB
:1019C000991F9E012F5F3F4F820F931F0496FC01CA
:1019D0008081918140E3480F8B819C8129893A89DC
:1019E000820F931F242FFC0120838B819C81019601
:1019F0009C838B838B819C810697FCF289899A89D1
:101A00000796FC011082000062960FB6F894DEBFC4
:101A10000FBECDBFDF91CF910895CF93DF9300D05C
:101A200000D01F921F92CDB7DEB79C838B834D836E
:101A30005E836F8378871A82198282C029813A81F6
:101A4000C901880F991F880F991F880F991F821B42
:101A5000930B880F991F835E974FFC018081882329
:101A600009F069C029813A81C901880F991F880F3F
:101A7000991F880F991F821B930B880F991F805FF6
:101A8000974F0E94AD0C29813A81C901880F991F97
:101A9000880F991F880F991F821B930B880F991F1E
:101AA000855E974F2B813C81FC013183208380E050
:101AB00090E00E9429189B01AC018D819E81AF812D
:101AC000B885280F391F4A1F5B1F69817A81CB01B6
:101AD000880F991F880F991F880F991F861B970BD6
:101AE000880F991F895E974FFC01208331834283C1
:101AF000538329813A81C901880F991F880F991F43
:101B0000880F991F821B930B880F991F835E974F35
:101B100021E0FC01208329813A81C901880F991FA6
:101B2000880F991F880F991F821B930B880F991F8D
:101B3000805F974F0CC089819A8101969A8389832F
:101B400089819A8144970CF479CF80E090E02896BF
:101B50000FB6F894DEBF0FBECDBFDF91CF910895D1
:101B6000CF93DF931F92CDB7DEB789830E946D03B9
:101B70008981882371F082E290E0FC01208182E279
:101B800090E02160FC01208382EA92E00E947803C9
:101B90000DC082E290E0FC01208182E290E02E7F85
:101BA000FC0120838FEA92E00E94780300000F90EE
:101BB000DF91CF910895CF93DF9300D01F92CDB7DF
:101BC000DEB71A8219821C821B8218C02B813C81CD
:101BD00044E2429FC001439F900D112481519C4FCC
:101BE000FC018081882329F089819A8101969A835A
:101BF00089838B819C8101969C838B838B819C81C3
:101C00004E9724F30E946D038DEB92E00E947803BF
:101C100089819A810E944A0500000F900F900F90D1
:101C20000F90DF91CF910895CF93DF931F92CDB79F
:101C3000DEB789830E946D038981813051F48091E0
:101C40004E0990914F09019690934F0980934E0948
:101C50000FC080914E0990914F09892B49F08091D6
:101C60004E0990914F09019790934F0980934E0927
:101C700087EC92E00E94780380914E0990914F0981
:101C80000E944A0500000F90DF91CF910895CF93F5
:101C9000DF9300D000D000D01F921F92CDB7DEB7E7
:101CA00082ED92E00E947803188619861A861B86B8
:101CB00019821A820E94FF008D838981882321F472
:101CC0000E946D0381E089838D818A3019F18D81B5
:101CD0008D3001F18A818330E0F48A8191E0980FA0
:101CE0009A83882F90E09E01285F3F4F820F931FB9
:101CF0002D81FC0120838A81882F90E09E01285F3E
:101D00003F4F820F931FFC0110828D810E94490377
:101D1000D1CF0000CE0108960E94041B9F838E83C2
:101D20008E819F81181619064CF00E946D038DED6F
:101D300092E00E94780380E090E03FC01C821B820A
:101D400030C02B813C8144E2429FC001439F900DF3
:101D5000112481519C4FFC0180818823E9F02B8163
:101D60003C8144E2429FC001439F900D1124845363
:101D70009C4FFC01208131818E819F81281739077A
:101D800059F42B813C8144E2429FC001439F900D56
:101D9000112484539C4F11C08B819C8101969C839C
:101DA0008B838B819C814E9764F20E946D0388EE39
:101DB00092E00E94780380E090E02B960FB6F894B2
:101DC000DEBF0FBECDBFDF91CF910895CF93DF93DC
:101DD000CDB7DEB7EA970FB6F894DEBF0FBECDBF22
:101DE0009AAF89AF0E946D0388EF92E00E9478035A
:101DF00089AD9AADFC01808191810E944A0580E005
:101E000090E0AAE7B4E48BA79CA7ADA7BEA720E00B
:101E100030E04AE753E46BA57CA58DA59EA50E9402
:101E20003D1ADC01CB018FA798ABA9ABBAAB20E080
:101E300030E040E85FE36FA578A989A99AA90E94DC
:101E4000D91888232CF481E090E09CAB8BAB3FC089
:101E500020E03FEF4FE757E46FA578A989A99AA939
:101E60000E94381A18164CF520E030E040E251E4A8
:101E70006BA57CA58DA59EA50E943D1ADC01CB011A
:101E8000BC01CD010E945719DC01CB019CAB8BAB8F
:101E90000FC089E190E09EAB8DAB8DA99EA9019703
:101EA000F1F79EAB8DAB8BA99CA901979CAB8BAB3B
:101EB0008BA99CA9892B69F714C06FA578A989A95A
:101EC0009AA90E945719DC01CB019CAB8BAB8BA963
:101ED0009CA998AF8FAB8FA998AD0197F1F798AFF8
:101EE0008FAB0E946D0384E093E00E94780389AD7C
:101EF0009AAD0F960E94780380E090E0AAE7B4E4E0
:101F00008D8F9E8FAF8FB8A320E030E04AE753E477
:101F10006D8D7E8D8F8D98A10E943D1ADC01CB01C5
:101F200089A39AA3ABA3BCA320E030E040E85FE321
:101F300069A17AA18BA19CA10E94D91888232CF4B5
:101F400081E090E09EA38DA33FC020E03FEF4FE7EC
:101F500057E469A17AA18BA19CA10E94381A181696
:101F60004CF520E030E040E251E46D8D7E8D8F8DA8
:101F700098A10E943D1ADC01CB01BC01CD010E9459
:101F80005719DC01CB019EA38DA30FC089E190E01E
:101F900098A78FA38FA198A50197F1F798A78FA372
:101FA0008DA19EA101979EA38DA38DA19EA1892B9A
:101FB00069F714C069A17AA18BA19CA10E9457194D
:101FC000DC01CB019EA38DA38DA19EA19AA789A719
:101FD00089A59AA50197F1F79AA789A70E946D0391
:101FE00085E592E00E94780389AD9AADFC01818578
:101FF0009285FC018081882F90E00E944A0580E054
:1020000090E0AAE7B4E48F87988BA98BBA8B20E085
:1020100030E04AE753E46F85788989899A890E947C
:102020003D1ADC01CB018B8B9C8BAD8BBE8B20E0F2
:1020300030E040E85FE36B897C898D899E890E944E
:10204000D91888232CF481E090E0988F8F8B3FC0C3
:1020500020E03FEF4FE757E46B897C898D899E89AB
:102060000E94381A18164CF520E030E040E251E4A6
:102070006F85788989899A890E943D1ADC01CB0194
:10208000BC01CD010E945719DC01CB01988F8F8BC9
:102090000FC089E190E09A8F898F898D9A8D019781
:1020A000F1F79A8F898F8F89988D0197988F8F8BF1
:1020B0008F89988D892B69F714C06B897C898D89EC
:1020C0009E890E945719DC01CB01988F8F8B8F89D5
:1020D000988D9C8F8B8F8B8D9C8D0197F1F79C8FAA
:1020E0008B8F0E946D038BE093E00E94780389AD93
:1020F0009AADFC0183859485A585B685BC01CD018B
:102100000E945019DC01CB010E944A0580E090E05A
:10211000AAE7B4E489839A83AB83BC8320E030E0F0
:102120004AE753E469817A818B819C810E943D1A40
:10213000DC01CB018D839E83AF83B88720E030E044
:1021400040E85FE36D817E818F8198850E94D91878
:1021500088232CF481E090E09A8789873FC020E0B3
:102160003FEF4FE757E46D817E818F8198850E9414
:10217000381A18164CF520E030E040E251E469814D
:102180007A818B819C810E943D1ADC01CB01BC01CC
:10219000CD010E945719DC01CB019A8789870FC0B6
:1021A00089E190E09C878B878B859C850197F1F76F
:1021B0009C878B8789859A8501979A8789878985E6
:1021C0009A85892B69F714C06D817E818F819885EE
:1021D0000E945719DC01CB019A87898789859A85E6
:1021E0009E878D878D859E850197F1F79E878D87C8
:1021F0000E946D038BE892E00E9478030000EA964B
:102200000FB6F894DEBF0FBECDBFDF91CF9108951A
:10221000CF92DF92EF92FF92CF93DF93CDB7DEB7ED
:10222000A2970FB6F894DEBF0FBECDBF8AA38AA1D6
:10223000082E000C990B092E000CAA0BBB0B815623
:102240009109A109B10987319105A105B10508F0EE
:10225000BFC1FC018827E05DFE4E8F4F0C945018E3
:102260004F11E812E8124B114711E8125411E8120D
:10227000E812E812E8128011E812E812E812E812F7
:10228000E81273126E12E812E8125E128B1181E0EE
:102290000E94B00DA7C180E00E94B00DA3C10E94B2
:1022A0006D030E9421089EC10E946D030E94470E8B
:1022B0009A87898789859A85892B09F490C18985B0
:1022C0009A85FC018081918148E552E060E070E0F0
:1022D0000E940D0D9C878B870E946D038B859C85CA
:1022E000892B29F486E193E00E9478037BC188E280
:1022F00093E00E9478038B859C850E94780372C1CD
:1023000082E290E0FC01308182E290E024E0232729
:10231000FC01208367C10E94E50327E0CE014B96B4
:10232000FC01322F11923A95E9F71A821982AFC057
:102330000E94D9058D838D81882309F078C0898119
:102340009A8101979A83898380E090E0A8ECB2E4B7
:102350008D879E87AF87B88B20E030E04AE753E453
:102360006D857E858F8598890E943D1ADC01CB01A1
:10237000898B9A8BAB8BBC8B20E030E040E85FE32D
:1023800069897A898B899C890E94D91888232CF4C1
:1023900081E090E09E8B8D8B3FC020E03FEF4FE7C8
:1023A00057E469897A898B899C890E94381A1816A2
:1023B0004CF520E030E040E251E46D857E858F856C
:1023C00098890E943D1ADC01CB01BC01CD010E941D
:1023D0005719DC01CB019E8B8D8B0FC089E190E0FA
:1023E000988F8F8B8F89988D0197F1F7988F8F8BAE
:1023F0008D899E8901979E8B8D8B8D899E89892BD6
:1024000069F736C069897A898B899C890E94571936
:10241000DC01CB019E8B8D8B8D899E899A8F898F54
:10242000898D9A8D0197F1F79A8F898F21C08D81BF
:10243000833261F48FEF9FEF9A8389830E94E503D3
:1024400000000E94D9058823E1F712C09E01255E95
:102450003F4F89819A81820F931F2D81FC01208338
:102460008AE20E94C10300000E94D9058823E1F797
:1024700089819A8101969E01255E3F4F820F931FAD
:10248000FC01108289819A8101969A8389838981CE
:102490009A8106970CF44CCF0E94E503CE014B962F
:1024A0000E949D0B882329F08FE293E00E94F003A5
:1024B00099C08EE393E00E94F00394C00E946D03E4
:1024C0000E94470E9F838E838E819F81892B09F402
:1024D00088C08E819F810E94E60E84C00E946D0399
:1024E0000E94DB0D7FC00E946D038CE493E00E948C
:1024F00078030E94FF0088870E946D0388858937D2
:1025000009F061C01C821B8253C02B813C8144E2D4
:10251000429FC001439F900D112481519C4FFC01AB
:102520008081882309F43FC02B813C8144E2429F93
:10253000C001439F900D112489529C4FFC01C08023
:10254000D180E280F3802B813C8144E2429FC00134
:10255000439F900D11248B529C4FFC0180819181EF
:10256000FC0182819381CC01A0E0B0E0BC01CD01EF
:102570000E948619DC01CB019C01AD01C701B601A7
:102580000E946D18DC01CB014B815C8164E2649F89
:102590009001659F300D112429523C4FF901808331
:1025A0009183A283B3838B819C8101969C838B83CF
:1025B0008B819C818833944008F4A7CF8CE593E00D
:1025C0000E9478030FC087E693E00E9478030AC058
:1025D0000E946D0383E793E00E94780303C000002C
:1025E00001C000000000A2960FB6F894DEBF0FBE37
:1025F000CDBFDF91CF91FF90EF90DF90CF90089506
:10260000CF93DF931F921F92CDB7DEB71A82198244
:102610000EC029813A81C901880F991F820F931F2B
:10262000880F991F89819A8101969A83898389816C
:102630009A81069774F300000F900F90DF91CF916D
:1026400008950F931F93CF93DF93CDB7DEB7C45593
:10265000D1090FB6F894DEBF0FBECDBF9E01295B36
:102660003F4F80E090E0A8ECB2E4F90180839183D1
:10267000A283B3838E01055B1F4FCE01895B9F4F01
:1026800020E030E04AE753E4FC01608171818281FF
:1026900093810E943D1ADC01CB01F8018083918374
:1026A000A283B383CE01855B9F4F20E030E040E8FA
:1026B0005FE3FC0160817181828193810E94D9185E
:1026C00088234CF4CE01815B9F4F21E030E0FC0178
:1026D000318320836DC0CE01855B9F4F20E03FEFAB
:1026E0004FE757E4FC0160817181828193810E94F0
:1026F000381A18160CF04AC0CE01895B9F4F20E0B3
:1027000030E040E251E4FC0160817181828193817B
:102710000E943D1ADC01CB018E01015B1F4FBC0101
:10272000CD010E945719DC01CB01F8019183808310
:1027300024C0CE018F5A9F4F29E130E0FC01318344
:102740002083CE018F5A9F4FFC0180819181019798
:10275000F1F79E012F5A3F4FF90191838083CE01FB
:10276000815B9F4F9E01215B3F4FF90120813181A9
:1027700021503109FC0131832083CE01815B9F4FC1
:10278000FC0180819181892BA1F62CC08E01015B17
:102790001F4FCE01855B9F4FFC016081718182815B
:1027A00093810E945719DC01CB01F801918380834A
:1027B000CE018D5A9F4F9E01215B3F4FF901208131
:1027C0003181FC0131832083CE018D5A9F4FFC0162
:1027D000808191810197F1F79E012D5A3F4FF901B8
:1027E000918380838FE793E00E94DF0080E090E098
:1027F000AAEFB3E489AF9AAFABAFBCAF20E030E053
:102800004AE753E469AD7AAD8BAD9CAD0E943D1AA9
:10281000DC01CB019E01235C3F4FF9018083918352
:10282000A283B38320E030E040E85FE3CE01CD96A1
:10283000FC0160817181828193810E94D918882373
:102840004CF4CE018F5B9F4F21E030E0FC013183DF
:10285000208367C020E03FEF4FE757E4CE01CD96DD
:10286000FC0160817181828193810E94381A18165F
:102870000CF046C020E030E040E251E469AD7AADB2
:102880008BAD9CAD0E943D1ADC01CB018E010F5B2C
:102890001F4FBC01CD010E945719DC01CB01F8018B
:1028A0009183808324C0CE018D5B9F4F29E130E06E
:1028B000FC0131832083CE018D5B9F4FFC01808121
:1028C00091810197F1F79E012D5B3F4FF9019183B3
:1028D0008083CE018F5B9F4F9E012F5B3F4FF9019D
:1028E0002081318121503109FC0131832083CE01C7
:1028F0008F5B9F4FFC0180819181892BA1F62BC0BA
:102900008E010F5B1F4FCE01CD96FC01608171815E
:10291000828193810E945719DC01CB01F8019183D8
:102920008083CE018B5B9F4F9E012F5B3F4FF90150
:1029300020813181FC0131832083CE018B5B9F4F4D
:10294000FC01808191810197F1F79E012B5B3F4F44
:10295000F9019183808384E893E00E94DF0080E0A6
:1029600090E0AAEFB3E48BA79CA7ADA7BEA720E099
:1029700030E04AE753E46BA57CA58DA59EA50E9497
:102980003D1ADC01CB018FA798ABA9ABBAAB20E015
:1029900030E040E85FE36FA578A989A99AA90E9471
:1029A000D91888232CF481E090E09CAB8BAB3FC01E
:1029B00020E03FEF4FE757E46FA578A989A99AA9CE
:1029C0000E94381A18164CF520E030E040E251E43D
:1029D0006BA57CA58DA59EA50E943D1ADC01CB01AF
:1029E000BC01CD010E945719DC01CB019CAB8BAB24
:1029F0000FC089E190E09EAB8DAB8DA99EA9019798
:102A0000F1F79EAB8DAB8BA99CA901979CAB8BABCF
:102A10008BA99CA9892B69F714C06FA578A989A9EE
:102A20009AA90E945719DC01CB019CAB8BAB8BA9F7
:102A30009CA998AF8FAB8FA998AD0197F1F798AF8C
:102A40008FAB89E993E00E94DF0080E090E0AAEF7D
:102A5000B3E48D8F9E8FAF8FB8A320E030E04AE7BC
:102A600053E46D8D7E8D8F8D98A10E943D1ADC01FF
:102A7000CB0189A39AA3ABA3BCA320E030E040E83C
:102A80005FE369A17AA18BA19CA10E94D918882338
:102A90002CF481E090E09EA38DA33FC020E03FEFA7
:102AA0004FE757E469A17AA18BA19CA10E94381A33
:102AB00018164CF520E030E040E251E46D8D7E8D3B
:102AC0008F8D98A10E943D1ADC01CB01BC01CD0184
:102AD0000E945719DC01CB019EA38DA30FC089E191
:102AE00090E098A78FA38FA198A50197F1F798A7D9
:102AF0008FA38DA19EA101979EA38DA38DA19EA1C1
:102B0000892B69F714C069A17AA18BA19CA10E94AD
:102B10005719DC01CB019EA38DA38DA19EA19AA77D
:102B200089A789A59AA50197F1F79AA789A787EAA6
:102B300093E00E94DF0080E090E0AAEFB3E48F878B
:102B4000988BA98BBA8B20E030E04AE753E46F857D
:102B5000788989899A890E943D1ADC01CB018B8B87
:102B60009C8BAD8BBE8B20E030E040E85FE36B894F
:102B70007C898D899E890E94D91888232CF481E054
:102B800090E0988F8F8B3FC020E03FEF4FE757E4F6
:102B90006B897C898D899E890E94381A18164CF59C
:102BA00020E030E040E251E46F85788989899A8994
:102BB0000E943D1ADC01CB01BC01CD010E945719D6
:102BC000DC01CB01988F8F8B0FC089E190E09A8F49
:102BD000898F898D9A8D0197F1F79A8F898F8F89C7
:102BE000988D0197988F8F8B8F89988D892B69F796
:102BF00014C06B897C898D899E890E945719DC01DC
:102C0000CB01988F8F8B8F89988D9C8F8B8F8B8D1D
:102C10009C8D0197F1F79C8F8B8F82EB93E00E9444
:102C2000DF0080E090E0AAEFB3E489839A83AB836E
:102C3000BC8320E030E04AE753E469817A818B81EC
:102C40009C810E943D1ADC01CB018D839E83AF8362
:102C5000B88720E030E040E85FE36D817E818F81BE
:102C600098850E94D91888232CF481E090E09A87F7
:102C700089873FC020E03FEF4FE757E46D817E81B9
:102C80008F8198850E94381A18164CF520E030E0A4
:102C900040E251E469817A818B819C810E943D1AD6
:102CA000DC01CB01BC01CD010E945719DC01CB0135
:102CB0009A8789870FC089E190E09C878B878B85F5
:102CC0009C850197F1F79C878B8789859A85019769
:102CD0009A87898789859A85892B69F714C06D81C0
:102CE0007E818F8198850E945719DC01CB019A87DC
:102CF000898789859A859E878D878D859E85019791
:102D0000F1F79E878D878EEB93E00E94DF00000035
:102D1000CC5ADF4F0FB6F894DEBF0FBECDBFDF91A8
:102D2000CF911F910F910895CF93DF93CDB7DEB769
:102D30008AE290E0FC0120818AE290E02E7FFC0193
:102D400020838AE290E0FC0120818AE290E02D7FDE
:102D5000FC0120838BE290E0FC0120818BE290E07B
:102D60002160FC0120838BE290E0FC0120818BE25A
:102D700090E02260FC01208389E690E0FC01208144
:102D800089E690E02360FC01208389E690E0FC0165
:102D9000208189E690E02C60FC0120838DE390E0A7
:102DA000FC0120818DE390E02360FC012083000082
:102DB000DF91CF910895CF93DF9300D0CDB7DEB7E9
:102DC00089837B836A838981282F30E081E090E0CA
:102DD00002C0880F991F2A95E2F79C018A819B8186
:102DE00082239323892B19F481E090E002C080E0D4
:102DF00090E00F900F900F90DF91CF910895CF93B7
:102E0000DF9300D000D0CDB7DEB70E94610780E02D
:102E100091E0FC018081882F90E0BC0182E00E945B
:102E2000DB169A83898389819A81892B81F081E0DD
:102E30000E94570C000080E091E0FC018081882F07
:102E400090E0BC0182E00E94DB16892BA1F780E0B4
:102E500091E0FC018081882F90E0BC0183E00E941A
:102E6000DB169C838B838B819C81892B81F082E094
:102E70000E94570C000080E091E0FC018081882FC7
:102E800090E0BC0183E00E94DB16892BA1F780E073
:102E900091E0FC018081882F90E0BC0184E00E94D9
:102EA000DB169E838D838D819E81892B09F4AFCFA4
:102EB0000E94850C000080E091E0FC018081882F59
:102EC00090E0BC0184E00E94DB16892BA1F79FCF24
:102ED0001F920F920FB60F9211240BB60F922F93E1
:102EE0003F934F935F936F937F938F939F93AF9392
:102EF000BF93EF93FF93CF93DF931F92CDB7DEB7CE
:102F000086EC90E0FC018081898389810E94081110
:102F100000000F90DF91CF91FF91EF91BF91AF91A2
:102F20009F918F917F916F915F914F913F912F91E1
:102F30000F900BBE0F900FBE0F901F9018951F9211
:102F40000F920FB60F9211240BB60F922F933F934F
:102F50004F935F936F937F938F939F93AF93BF93A1
:102F6000EF93FF93CF93DF93CDB7DEB780914E09F8
:102F700090914F09019690934F0980934E090E94BA
:102F80006D0387EC92E00E94780380914E09909146
:102F90004F090E944A050000DF91CF91FF91EF9108
:102FA000BF91AF919F918F917F916F915F914F9161
:102FB0003F912F910F900BBE0F900FBE0F901F905F
:102FC00018951F920F920FB60F9211240BB60F9205
:102FD0002F933F934F935F936F937F938F939F9321
:102FE000AF93BF93EF93FF93CF93DF93CDB7DEB74C
:102FF00080914E0990914F09892B49F080914E099B
:1030000090914F09019790934F0980934E090E9428
:103010006D0387EC92E00E94780380914E099091B5
:103020004F090E944A050000DF91CF91FF91EF9177
:10303000BF91AF919F918F917F916F915F914F91D0
:103040003F912F910F900BBE0F900FBE0F901F90CE
:103050001895FC010FB6F8946091530970915409CA
:1030600080915509909156090FBE309721F06083E9
:10307000718382839383089597FB072E16F400943F
:1030800007D077FD09D00E94581807FC05D03EF400
:10309000909581959F4F0895709561957F4F089504
:1030A000EE0FFF1F881F8BBF0790F691E02D19943C
:1030B000AA1BBB1B51E107C0AA1FBB1FA617B7075E
:1030C00010F0A61BB70B881F991F5A95A9F780957A
:1030D0009095BC01CD0108955058BB27AA270E94A6
:1030E00084180C94FE190E94F01938F00E94F71908
:1030F00020F039F49F3F19F426F40C94ED190EF4E6
:10310000E095E7FB0C94E719E92F0E940F1A58F39A
:10311000BA17620773078407950720F079F4A6F5BC
:103120000C94311A0EF4E0950B2EBA2FA02D0B0142
:10313000B90190010C01CA01A0011124FF27591BFC
:1031400099F0593F50F4503E68F11A16F040A22F02
:10315000232F342F4427585FF3CF46953795279573
:10316000A795F0405395C9F77EF41F16BA0B620B72
:10317000730B840BBAF09150A1F0FF0FBB1F661FB9
:10318000771F881FC2F70EC0BA0F621F731F841FFC
:1031900048F4879577956795B795F7959E3F08F022
:1031A000B0CF9395880F08F09927EE0F97958795E4
:1031B00008950E94C31908F481E008950E94F2184E
:1031C0000C94FE190E94F71958F00E94F01940F073
:1031D00029F45F3F29F00C94E71951110C94321A2D
:1031E0000C94ED190E940F1A68F39923B1F355233B
:1031F00091F3951B550BBB27AA276217730784070A
:1032000038F09F5F5F4F220F331F441FAA1FA9F39F
:1032100035D00E2E3AF0E0E832D091505040E6958D
:10322000001CCAF72BD0FE2F29D0660F771F881FEE
:10323000BB1F261737074807AB07B0E809F0BB0BE1
:10324000802DBF01FF2793585F4F3AF09E3F5105F5
:1032500078F00C94E7190C94321A5F3FE4F3983E2F
:10326000D4F3869577956795B795F7959F5FC9F7DE
:10327000880F911D9695879597F90895E1E0660F5F
:10328000771F881FBB1F621773078407BA0720F0D8
:10329000621B730B840BBA0BEE1F88F7E095089541
:1032A0000E9457196894B1110C94321A08950E9423
:1032B000171A88F09F5798F0B92F9927B751B0F097
:1032C000E1F0660F771F881F991F1AF0BA95C9F7AA
:1032D00014C0B13091F00E94311AB1E008950C94FD
:1032E000311A672F782F8827B85F39F0B93FCCF3B0
:1032F000869577956795B395D9F73EF49095809527
:10330000709561957F4F8F4F9F4F0895E89409C046
:1033100097FB3EF490958095709561957F4F8F4F08
:103320009F4F9923A9F0F92F96E9BB279395F6951E
:10333000879577956795B795F111F8CFFAF4BB0F9C
:1033400011F460FF1BC06F5F7F4F8F4F9F4F16C000
:10335000882311F096E911C0772321F09EE8872F8A
:10336000762F05C0662371F096E8862F70E060E046
:103370002AF09A95660F771F881FDAF7880F9695BF
:10338000879597F90895990F0008550FAA0BE0E863
:10339000FEEF16161706E807F907C0F01216130617
:1033A000E407F50798F0621B730B840B950B39F457
:1033B0000A2661F0232B242B252B21F408950A26BD
:1033C00009F4A140A6958FEF811D811D089597F9FD
:1033D0009F6780E870E060E008959FEF80EC0895BB
:1033E00000240A94161617061806090608950024E4
:1033F0000A9412161306140605060895092E03945E
:10340000000C11F4882352F0BB0F40F4BF2B11F4D1
:1034100060FF04C06F5F7F4F8F4F9F4F089557FD30
:103420009058440F551F59F05F3F71F04795880F32
:1034300097FB991F61F09F3F79F0879508951216C9
:1034400013061406551FF2CF4695F1DF08C0161675
:1034500017061806991FF1CF869571056105089426
:103460000895E894BB2766277727CB0197F908953D
:103470000E94C31908F48FEF08950E94501A0C940B
:10348000FE190E94F01938F00E94F71920F09523D8
:1034900011F00C94E7190C94ED1911240C94321AC4
:1034A0000E940F1A70F3959FC1F3950F50E0551FBE
:1034B000629FF001729FBB27F00DB11D639FAA2789
:1034C000F00DB11DAA1F649F6627B00DA11D661FD8
:1034D000829F2227B00DA11D621F739FB00DA11DF9
:1034E000621F839FA00D611D221F749F3327A00DB3
:1034F000611D231F849F600D211D822F762F6A2F4F
:1035000011249F5750409AF0F1F088234AF0EE0FB3
:10351000FF1FBB1F661F771F881F91505040A9F7E0
:103520009E3F510580F00C94E7190C94321A5F3FCE
:10353000E4F3983ED4F3869577956795B795F7951C
:10354000E7959F5FC1F7FE2B880F911D9695879594
:1035500097F908958F929F92AF92BF92CF92DF9288
:10356000EF92FF92CF93DF93EC01688179818A819A
:103570009B81611571058105910521F464E279ED66
:103580008BE597E02DE133EF41E050E00E94821B94
:1035900049015A019B01AC01A7EAB1E40E94A11BB9
:1035A0006B017C01ACEEB4EFA50194010E94AF1B4E
:1035B000DC01CB018C0D9D1DAE1DBF1DB7FF03C0EF
:1035C0000197A109B04888839983AA83BB839F7719
:1035D000DF91CF91FF90EF90DF90CF90BF90AF90B1
:1035E0009F908F9008950C94AA1A86E092E00C9414
:1035F000AA1AB0E0A0E08093060290930702A0937D
:103600000802B09309020895FC0188279927E894DD
:1036100021912032E9F3293010F02E30C8F32B32FB
:1036200041F02D3239F4689404C00E94501B820F7F
:10363000911D219120532A30C0F31EF4909581955D
:103640009F4F0895FB01DC018D91019080190110BD
:10365000D9F3990B0895FB01DC014150504048F02B
:1036600001900D920020C9F701C01D9241505040B9
:10367000E0F708954532510520F4423010F00C94E3
:10368000451BFB011082CB010895BB274A3031F462
:10369000992322F4BDE2909581959F4F0C94591B7C
:1036A0007AE0979F902D879F802D910D112408958A
:1036B000BB27FB015527AA27880F991FAA1FA4170C
:1036C00010F0A41B83955051B9F7A05DAA3308F000
:1036D000A95DA193009779F7B111B1931192CB0134
:1036E0000C94721BDC01FC01672F71917723E1F7C9
:1036F000329704C07C916D9370836291AE17BF07BF
:10370000C8F30895052E97FB1EF400940E94991BA0
:1037100057FD07D00E94B41B07FC03D04EF40C9455
:10372000991B50954095309521953F4F4F4F5F4FD6
:10373000089590958095709561957F4F8F4F9F4F1D
:1037400008950E94D61BA59F900DB49F900DA49F35
:10375000800D911D11240895B7FF0C94A11B0E94A8
:10376000A11B821B930B0895A1E21A2EAA1BBB1B5F
:10377000FD010DC0AA1FBB1FEE1FFF1FA217B3073D
:10378000E407F50720F0A21BB30BE40BF50B661F53
:10379000771F881F991F1A9469F760957095809517
:1037A00090959B01AC01BD01CF010895A29FB0018E
:1037B000B39FC001A39F700D811D1124911DB29F65
:0E37C000700D811D1124911D0895F894FFCF06
:1037CE00010000007A44010000004B4153414D427C
:1037DE004120532E4D2E00434F4445003132333499
:1037EE0035363738392A3023466C6F6F723A0049B6
:1037FE006E76616C696420466C6F6F7200547279DC
:10380E0020416761696E00466C6F6F72206973208C
:10381E0046756C6C00466C6F6F723A20004E616D8F
:10382E0065205B6D61783D32305D3A005061737397
:10383E00776F7264205B6D61783D365D3A0054653A
:10384E006E616E74206164646564004B6173616DBA
:10385E00626120532E4D2E0020696E206D616C6CBE
:10386E002E00457363616C61746F72204F6E00455C
:10387E007363616C61746F72204F66660054656E7F
:10388E00616E74733A200055707374616972733A85
:10389E002000456E7465722049443A2000496E76C8
:1038AE00616C6964204944004E6F2054656E616EF0
:1038BE007420466F756E640054656E616E74204997
:1038CE00443A20004E616D653A200052656E7420B8
:1038DE004475653A200047656E65726174696F6E56
:1038EE00204661696C656400436F64653A2000414F
:1038FE006363657373204772616E74656400416320
:10390E00636573732044656E6965640041736B2053
:10391E0052656E743F205B792F6E5D0052656E743A
:10392E002041646465640043616E63656C65642E5A
:10393E002E2E004E6F20436F6D6D616E642100411F
:10394E00540D0A0041542B4E414D453D546865457A
:10395E006D706F72696F0D0A0041542B50494E3DC8
:10396E00303030300D0A0041542B42415544340D55
:10397E000A0041542B524F4C453D300D0A00415424
:0C398E002B434D4F44453D310D0A000015
:00000001FF
