:100000000C9472000C9493000C9493000C94930045
:100010000C9493000C9493000C9493000C94930014
:100020000C9493000C9493000C9493000C94930004
:100030000C9493000C9493000C9493000C949300F4
:100040000C9493000C9493000C9493000C949300E4
:100050000C9493000C9493000C9493000C949300D4
:100060000C9493000C94110B0C9493000C9493003B
:100070000C9493000C9493000C9493000C949300B4
:100080000C9493000C9493000C9493000C949300A4
:100090000C9493000C9493000C9493000C94930094
:1000A0000C9493000C9493000C9493000C94930084
:1000B0000C9493000C9493000C9493000C94930074
:1000C0000C9493000C9493000C9493000C94930064
:1000D0000C9493000C9493000C9493000C94930054
:1000E0000C94930011241FBECFEFD1E2DEBFCDBF31
:1000F00000E00CBF12E0A0E0B2E0EEEBFCE100E0BB
:100100000BBF02C007900D92AA3DB107D9F728E0B6
:10011000AAEDB2E001C01D92A736B207E1F70E9436
:10012000A80A0C945D0E0C940000CF93DF93CDB71A
:10013000DEB785EC90E0FC01108284EC90E022E0D8
:10014000FC01208381EC90E028E9FC01208382EC13
:1001500090E026E0FC0120830000DF91CF9108951C
:10016000CF93DF931F92CDB7DEB78983000080EC79
:1001700090E0FC018081882F90E080729927892B84
:10018000B1F386EC90E02981FC01208300000F9000
:10019000DF91CF910895CF93DF931F921F92CDB738
:1001A000DEB79A8389830BC089819A819C012F5F76
:1001B0003F4F3A832983FC0180810E94B0008981EE
:1001C0009A81FC018081882379F700000F900F90BD
:1001D000DF91CF910895CF93DF93CDB7DEB70000C5
:1001E00080EC90E0FC0180818823D4F786EC90E0DD
:1001F000FC018081DF91CF910895CF93DF93CDB73C
:10020000DEB76C970FB6F894DEBF0FBECDBF82E0AD
:1002100091E0FC01208182E091E02068FC012083D4
:1002200080E090E0A0E8BFE38F87988BA98BBA8B22
:1002300020E030E04AE753E46F85788989899A891C
:100240000E94DB0CDC01CB018B8B9C8BAD8BBE8BBE
:1002500020E030E040E85FE36B897C898D899E89EE
:100260000E94F00B88232CF481E090E0988F8F8B14
:100270003FC020E03FEF4FE757E46B897C898D89D1
:100280009E890E94D60C18164CF520E030E040E222
:1002900051E46F85788989899A890E94DB0CDC0199
:1002A000CB01BC01CD010E94F50BDC01CB01988F85
:1002B0008F8B0FC089E190E09A8F898F898D9A8DFD
:1002C0000197F1F79A8F898F8F89988D0197988F71
:1002D0008F8B8F89988D892B69F714C06B897C89E6
:1002E0008D899E890E94F50BDC01CB01988F8F8B45
:1002F0008F89988D9C8F8B8F8B8D9C8D0197F1F7BB
:100300009C8F8B8F82E091E0FC01208182E091E064
:100310002F77FC01208380E090E0A0E8BFE3898391
:100320009A83AB83BC8320E030E04AE753E46981E1
:100330007A818B819C810E94DB0CDC01CB018D8357
:100340009E83AF83B88720E030E040E85FE36D81B3
:100350007E818F8198850E94F00B88232CF481E0A8
:1003600090E09A8789873FC020E03FEF4FE757E44E
:100370006D817E818F8198850E94D60C18164CF570
:1003800020E030E040E251E469817A818B819C81F8
:100390000E94DB0CDC01CB01BC01CD010E94F50BFE
:1003A000DC01CB019A8789870FC089E190E09C87A7
:1003B0008B878B859C850197F1F79C878B87898537
:1003C0009A8501979A87898789859A85892B69F704
:1003D00014C06D817E818F8198850E94F50BDC01B0
:1003E000CB019A87898789859A859E878D878D8598
:1003F0009E850197F1F79E878D8700006C960FB65A
:10040000F894DEBF0FBECDBFDF91CF910895CF939B
:10041000DF931F92CDB7DEB7898388E091E0298111
:10042000FC01208382E091E0FC01208182E091E0E8
:100430002F7DFC01208382E091E0FC01208182E09D
:1004400091E02F7BFC0120830E94FD0000000F90B3
:10045000DF91CF910895CF93DF931F92CDB7DEB791
:10046000898388E091E02981FC01208382E091E08A
:10047000FC01208182E091E02062FC01208382E087
:1004800091E0FC01208182E091E02F7BFC01208340
:100490000E94FD0000000F90DF91CF910895CF934F
:1004A000DF93CDB7DEB781E00E9407020000DF9145
:1004B000CF910895CF93DF931F921F92CDB7DEB7F0
:1004C0009A8389830BC089819A819C012F5F3F4F5A
:1004D0003A832983FC0180810E942B0289819A81C1
:1004E000FC018081882379F70F900F90DF91CF91E5
:1004F0000895CF93DF93CDB7DEB76E970FB6F8941C
:10050000DEBF0FBECDBF87E091E02FEFFC0120835F
:1005100080E090E0A0EAB1E4898B9A8BAB8BBC8B36
:1005200020E030E04AE753E469897A898B899C8925
:100530000E94DB0CDC01CB018D8B9E8BAF8BB88FC7
:1005400020E030E040E85FE36D897E898F89988DF7
:100550000E94F00B88232CF481E090E09A8F898F21
:100560003FC020E03FEF4FE757E46D897E898F89D8
:10057000988D0E94D60C18164CF520E030E040E231
:1005800051E469897A898B899C890E94DB0CDC01A2
:10059000CB01BC01CD010E94F50BDC01CB019A8F90
:1005A000898F0FC089E190E09C8F8B8F8B8D9C8D04
:1005B0000197F1F79C8F8B8F898D9A8D01979A8F78
:1005C000898F898D9A8D892B69F714C06D897E89F1
:1005D0008F89988D0E94F50BDC01CB019A8F898F52
:1005E000898D9A8D9E8F8D8F8D8D9E8D0197F1F7C0
:1005F0009E8F8D8F88E30E9407028CE00E94070285
:100600000E944F0280E090E0A0E0B0E48B839C83E6
:10061000AD83BE8320E030E04AE753E46B817C8108
:100620008D819E810E94DB0CDC01CB018F8398873A
:10063000A987BA8720E030E040E85FE36F817885E2
:1006400089859A850E94F00B88232CF481E090E044
:100650009C878B873FC020E03FEF4FE757E46F81D7
:10066000788589859A850E94D60C18164CF520E06D
:1006700030E040E251E46B817C818D819E810E945B
:10068000DB0CDC01CB01BC01CD010E94F50BDC01D0
:10069000CB019C878B870FC089E190E09E878D8777
:1006A0008D859E850197F1F79E878D878B859C852B
:1006B00001979C878B878B859C85892B69F714C054
:1006C0006F81788589859A850E94F50BDC01CB01C5
:1006D0009C878B878B859C85988B8F878F85988946
:1006E0000197F1F7988B8F8788E091E0FC011082E9
:1006F00086E00E94070288E092E09A8389838981DC
:100700009A810E945A0200006E960FB6F894DEBFDE
:100710000FBECDBFDF91CF910895CF93DF93CDB7BB
:10072000DEB764970FB6F894DEBF0FBECDBF9C8BCB
:100730008B8B9E012D5F3F4F8B899C894AE050E057
:10074000B9010E94BA0DCE0103969A8389830BC02A
:1007500089819A81FC0180810E942B0289819A8182
:1007600001969A83898389819A81FC0180818823FB
:1007700079F7000064960FB6F894DEBF0FBECDBFC8
:10078000DF91CF910895CF93DF9300D000D0CDB704
:10079000DEB7F8940E94950080E390E021E0FC0130
:1007A000208381E091E020EEFC01208382E091E053
:1007B0002FE1FC0120830E94790281E290E02FEF7B
:1007C000FC01208382E290E0FC0110821A821982EF
:1007D00084C089819A8101969E838D8380910002D5
:1007E00090910102A0910202B0910302BC01CD01DF
:1007F0000E94F50BDC01CB019C838B838D819E8154
:100800008230910519F00397E1F040C08091000219
:1008100090910102A0910202B091030220E030E029
:1008200040E45FE3BC01CD010E94DB0CDC01CB01A5
:10083000BC01CD010E94F50BDC01CB019C838B83B5
:1008400025C08091000290910102A0910202B09116
:10085000030220E030E040E45FE3BC01CD010E94F0
:10086000DB0CDC01CB0120E030E040E45FE3BC01C5
:10087000CD010E94DB0CDC01CB01BC01CD010E944B
:10088000F50BDC01CB019C838B8300002D818981DA
:100890009A81880F991F880F991F8E5E984FFC01CF
:1008A000208389819A81880F991F880F991F8C5EF8
:1008B000984F2B813C81FC013183208389819A816F
:1008C000880F991F880F991F8D5E984FFC01108229
:1008D00089819A8101969A83898389819A81039774
:1008E0000CF477CF7894000026960FB6F894DEBF0C
:1008F0000FBECDBFDF91CF910895CF93DF93CDB7DA
:10090000DEB7C155D1090FB6F894DEBF0FBECDBF1B
:100910001D820E944F0285E192E00E945A020E94CD
:10092000EB008E838E8180538D838D81882321F00F
:100930008D81843008F4F1C00E944F028CE192E076
:100940000E945A0280E090E0AAE7B4E48B8F9C8F6B
:10095000AD8FBE8F20E030E04AE753E46B8D7C8D95
:100960008D8D9E8D0E94DB0CDC01CB018F8F98A3B7
:10097000A9A3BAA320E030E040E85FE36F8D78A13F
:1009800089A19AA10E94F00B88232CF481E090E0C9
:100990009CA38BA33FC020E03FEF4FE757E46F8D50
:1009A00078A189A19AA10E94D60C18164CF520E0D6
:1009B00030E040E251E46B8D7C8D8D8D9E8D0E94E8
:1009C000DB0CDC01CB01BC01CD010E94F50BDC018D
:1009D000CB019CA38BA30FC089E190E09EA38DA3C4
:1009E0008DA19EA10197F1F79EA38DA38BA19CA140
:1009F00001979CA38BA38BA19CA1892B69F714C0A1
:100A00006F8D78A189A19AA10E94F50BDC01CB0121
:100A10009CA38BA38BA19CA198A78FA38FA198A522
:100A20000197F1F798A78FA30E944F028AE292E004
:100A30000E945A0280E090E0AAE7B4E48D879E8786
:100A4000AF87B88B20E030E04AE753E46D857E85C0
:100A50008F8598890E94DB0CDC01CB01898B9A8BF6
:100A6000AB8BBC8B20E030E040E85FE369897A899A
:100A70008B899C890E94F00B88232CF481E090E004
:100A80009E8B8D8B3FC020E03FEF4FE757E4698995
:100A90007A898B899C890E94D60C18164CF520E027
:100AA00030E040E251E46D857E858F8598890E9413
:100AB000DB0CDC01CB01BC01CD010E94F50BDC019C
:100AC000CB019E8B8D8B0FC089E190E0988F8F8B2F
:100AD0008F89988D0197F1F7988F8F8B8D899E89DB
:100AE00001979E8B8D8B8D899E89892B69F7C9C053
:100AF00069897A898B899C890E94F50BDC01CB017D
:100B00009E8B8D8B8D899E899A8F898F898D9A8DE9
:100B10000197F1F79A8F898FB4C08D81882F90E06B
:100B20000197880F991F880F991F8E5E984F98879D
:100B30008F830E944F028F819885FC0181818A30CA
:100B400028F084E392E00E945A029BC082E492E083
:100B50000E945A028D81882F90E00E948D0380E0D0
:100B600090E0AAEFB3E489A79AA7ABA7BCA720E0BF
:100B700030E04AE753E469A57AA58BA59CA50E94BD
:100B8000DB0CDC01CB018DA79EA7AFA7B8AB20E0A3
:100B900030E040E85FE36DA57EA58FA598A90E948F
:100BA000F00B88232CF481E090E09AAB89AB3FC036
:100BB00020E03FEF4FE757E46DA57EA58FA598A9EC
:100BC0000E94D60C18164CF520E030E040E251E4CB
:100BD00069A57AA58BA59CA50E94DB0CDC01CB0145
:100BE000BC01CD010E94F50BDC01CB019AAB89ABB6
:100BF0000FC089E190E09CAB8BAB8BA99CA90197BE
:100C0000F1F79CAB8BAB89A99AA901979AAB89ABF9
:100C100089A99AA9892B69F714C06DA57EA58FA50E
:100C200098A90E94F50BDC01CB019AAB89AB89A98D
:100C30009AA99EAB8DAB8DA99EA90197F1F79EABAA
:100C40008DAB0E944F0200008D81882F90E00197AC
:100C5000880F991F880F991F8E5E984F9A878987F2
:100C60008AE492E00E945A0224E1CE01C796FC0178
:100C7000322F11923A95E9F71A8219821C821B824F
:100C800001C047CE0E94EB008B8789819A81892B16
:100C900031F40E944F0281E090E09A8389838B8136
:100CA0009C814397DCF48B819C819C012F5F3F4F9B
:100CB0003C832B839E01295C3F4F820F931F2B8522
:100CC000FC0120839E01295C3F4F8B819C81820F18
:100CD000931FFC0110828B850E942B028B85882339
:100CE00039F08B858A3021F08B858D3009F0CACFA1
:100CF0000E944F0289E592E00E945A02CE01855B74
:100D00009F4F27E0FC01322F11923A95E9F71C82A0
:100D10001B821A8219820E94EB008C8789819A813A
:100D2000892B31F40E944F0281E090E09A838983FD
:100D30008B819C810697DCF48B819C819C012F5FC9
:100D40003F4F3C832B839E01255B3F4F820F931FB8
:100D50002C85FC0120839E01255B3F4F8B819C816C
:100D6000820F931FFC0110828AE20E942B028C8565
:100D7000882339F08C858A3021F08C858D3009F0FC
:100D8000CACF0E944F028091610890916208209121
:100D9000610830916208AC0164E2629FC001639F08
:100DA000900D112486529D4FFC0151834083209168
:100DB00061083091620844E2429FC001439F900D58
:100DC00011248D519D4F29853A85FC013183208363
:100DD000209161083091620844E2429FC001439F24
:100DE000900D112483509D4F21E0FC012083209120
:100DF00061083091620844E2429FC001439F900D18
:100E000011240F9686529D4F9E01295C3F4F44E16D
:100E100050E0B9010E94AB0D209161083091620849
:100E200044E2429FC001439F900D112402968652D6
:100E30009D4F9E01255B3F4F47E050E0B9010E9466
:100E4000AB0D89859A85FC01818121E0280F898578
:100E50009A85FC0121838091610890916208019636
:100E600090936208809361088BE692E00E945A0298
:100E700080E090E0CF5ADF4F0FB6F894DEBF0FBE90
:100E8000CDBFDF91CF910895CF93DF93CDB7DEB77C
:100E900080E090E00E94480BDC01CB01BC01CD0159
:100EA000DF91CF910895CF93DF9300D000D000D091
:100EB0001F92CDB7DEB79A8789871A82198241C0FF
:100EC00029813A8144E2429FC001439F900D112441
:100ED00083509D4FFC018081882371F129813A81E3
:100EE00044E2429FC001439F900D11240296865216
:100EF0009D4F29853A85B9010E94A20D892BE1F405
:100F000029813A8144E2429FC001439F900D112400
:100F10008B519D4FFC0180819181A281B38120E0A2
:100F200030E0A901BC01CD010E94F00B181614F0AD
:100F300081E06AC080E068C089819A8101969A83C5
:100F4000898389819A814E970CF4BACF0E94440715
:100F5000DC01CB018D839E83AF83B8871C821B820B
:100F60004DC02B813C81C901880F991F880F991FA3
:100F7000880F991F821B930B880F991F855D984FCF
:100F8000FC0180818823A9F12B813C81C901880F54
:100F9000991F880F991F880F991F821B930B880F29
:100FA000991F825E984F29853A85B9010E94A20D4A
:100FB000892BF9F42B813C81C901880F991F880F77
:100FC000991F880F991F821B930B880F991F8B5DA8
:100FD000984FFC0180819181A281B3812D813E8156
:100FE0004F815885281739074A075B0710F481E0BD
:100FF0000BC08B819C8101969C838B838B819C8110
:1010000044970CF4AECF80E02A960FB6F894DEBF7A
:101010000FBECDBFDF91CF910895CF93DF931F9285
:10102000CDB7DEB789830E944F028981813031F4C8
:1010300080915E088F5F80935E0805C080915F0895
:101040008F5F80935F0880915A0890915B080196AA
:1010500090935B0880935A0880915A0890915B089E
:101060000E948D0388E792E00E945A0200000F90D0
:10107000DF91CF910895CF93DF93CDB7DEB70E9474
:101080004F0280915A0890915B08892B71F08091F2
:101090005A0890915B08019790935B0880935A08D7
:1010A000809160088F5F8093600880915A089091CA
:1010B0005B080E948D0388E792E00E945A020000BC
:1010C000DF91CF910895CF93DF9300D000D000D06F
:1010D0001F921F92CDB7DEB79B878A8727E0CE018C
:1010E0000396FC01322F11923A95E9F71A82198280
:1010F00016C00E94930D2AE030E0B9010E945B0BFC
:10110000482F9E012D5F3F4F89819A81820F931F47
:10111000FC01408389819A8101969A838983898120
:101120009A81069734F31A869E012D5F3F4F8A8578
:101130009B8542E050E0B9010E94AB0D00002B9668
:101140000FB6F894DEBF0FBECDBFDF91CF910895EB
:10115000CF93DF9300D000D01F921F92CDB7DEB7A0
:101160009C838B834D835E836F8378871A82198279
:1011700073C029813A81C901880F991F880F991F6F
:10118000880F991F821B930B880F991F855D984FBD
:10119000FC018081882309F05AC029813A81C90164
:1011A000880F991F880F991F880F991F821B930B17
:1011B000880F991F825E984F0E94630829813A81A7
:1011C000C901880F991F880F991F880F991F821BCB
:1011D000930B880F991F875D984F2B813C81FC01F1
:1011E0003183208380E090E00E94480B9B01AC019A
:1011F0008D819E81AF81B885280F391F4A1F5B1FE3
:1012000069817A81CB01880F991F880F991F880FF8
:10121000991F861B970B880F991F8B5D984FFC01B8
:10122000208331834283538329813A81C901880F06
:10123000991F880F991F880F991F821B930B880F86
:10124000991F855D984F21E0FC0120830AC08981A8
:101250009A8101969A83898389819A8144970CF4B3
:1012600088CF000028960FB6F894DEBF0FBECDBF22
:10127000DF91CF910895CF93DF931F92CDB7DEB763
:1012800089838981882371F082E290E0FC012081CA
:1012900082E290E02160FC01208382E892E00E94DB
:1012A0005A020DC082E290E0FC01208182E290E0CF
:1012B0002E7FFC0120838FE892E00E945A020000FA
:1012C0000F90DF91CF910895CF93DF9300D01F92BD
:1012D000CDB7DEB71A8219821C821B8218C02B81FF
:1012E0003C8144E2429FC001439F900D11248350F2
:1012F0009D4FFC018081882329F089819A81019684
:101300009A8389838B819C8101969C838B838B81BB
:101310009C814E9724F30E944F028DE992E00E9437
:101320005A0289819A810E948D0300000F900F90CC
:101330000F900F90DF91CF910895CF92DF92EF92AF
:10134000FF92CF93DF9300D01F92CDB7DEB78C838F
:101350000E944F028C81082E000C990B8536910556
:1013600089F0863691053CF48136910599F08436F2
:10137000910561F088C08237910591F0833791051E
:1013800061F081C081E00E943B0981C080E00E9441
:101390003B097DC00E947D047AC00E94640977C029
:1013A00087EA92E00E945A020E94EB008B830E941F
:1013B0004F028B81893709F061C01A82198253C0AC
:1013C00029813A8144E2429FC001439F900D11243C
:1013D00083509D4FFC018081882309F43FC02981FF
:1013E0003A8144E2429FC001439F900D11248B51EA
:1013F0009D4FFC01C080D180E280F38029813A8139
:1014000044E2429FC001439F900D11248D519D4F96
:10141000FC0180819181FC0182819381CC01A0E05B
:10142000B0E0BC01CD010E94240CDC01CB019C0189
:10143000AD01C701B6010E94840BDC01CB014981DB
:101440005A8164E2649F9001659F300D11242B51F5
:101450003D4FF90180839183A283B38389819A816F
:1014600001969A83898389819A818833944008F40C
:10147000A7CF87EB92E00E945A0209C082EC92E06B
:101480000E945A0204C08EEC92E00E945A020000B0
:101490000F900F900F900F90DF91CF91FF90EF90F2
:1014A000DF90CF900895CF93DF931F921F92CDB717
:1014B000DEB71A8219820EC029813A81C901880FCC
:1014C000991F820F931F880F991F89819A81019616
:1014D0009A83898389819A81069774F300000F901B
:1014E0000F90DF91CF910895CF93DF93CDB7DEB703
:1014F0000000DF91CF910895CF93DF93CDB7DEB792
:101500000000DF91CF910895CF93DF9300D0CDB746
:10151000DEB789837B836A838981282F30E081E06D
:1015200090E002C0880F991F2A95E2F79C018A81FA
:101530009B8182239323892B19F481E090E002C0E0
:1015400080E090E00F900F900F90DF91CF91089581
:10155000CF93DF9300D000D0CDB7DEB70E94C30396
:1015600080E091E0FC018081882F90E0BC0182E066
:101570000E94840A9A83898389819A81892B81F0C8
:1015800081E00E940D08000080E091E0FC01808174
:10159000882F90E0BC0182E00E94840A892BA1F789
:1015A00080E091E0FC018081882F90E0BC0183E025
:1015B0000E94840A9C838B838B819C81892B81F080
:1015C00082E00E940D08000080E091E0FC01808133
:1015D000882F90E0BC0183E00E94840A892BA1F748
:1015E00080E091E0FC018081882F90E0BC0184E0E4
:1015F0000E94840A9E838D838D819E81892B09F4AC
:10160000AFCF0E943B08000080E091E0FC018081A8
:10161000882F90E0BC0184E00E94840A892BA1F706
:101620009FCF1F920F920FB60F9211240BB60F92FD
:101630002F933F934F935F936F937F938F939F93DA
:10164000AF93BF93EF93FF93CF93DF931F92CDB7E9
:10165000DEB786EC90E0FC018081898389810E945D
:101660009D0900000F90DF91CF91FF91EF91BF9105
:10167000AF919F918F917F916F915F914F913F912A
:101680002F910F900BBE0F900FBE0F901F901895CB
:10169000FC010FB6F8946091630870916408809122
:1016A0006508909166080FBE309721F060837183C2
:1016B00082839383089597FB072E16F4009407D036
:1016C00077FD09D00E946F0B07FC05D03EF4909582
:1016D00081959F4F0895709561957F4F0895AA1B3E
:1016E000BB1B51E107C0AA1FBB1FA617B70710F00D
:1016F000A61BB70B881F991F5A95A9F7809590953F
:10170000BC01CD0108955058BB27AA270E949B0B0E
:101710000C949C0C0E948E0C38F00E94950C20F0CA
:1017200039F49F3F19F426F40C948B0C0EF4E095D9
:10173000E7FB0C94850CE92F0E94AD0C58F3BA1707
:10174000620773078407950720F079F4A6F50C94D7
:10175000CF0C0EF4E0950B2EBA2FA02D0B01B90182
:1017600090010C01CA01A0011124FF27591B99F017
:10177000593F50F4503E68F11A16F040A22F232F23
:10178000342F4427585FF3CF469537952795A79573
:10179000F0405395C9F77EF41F16BA0B620B730B1A
:1017A000840BBAF09150A1F0FF0FBB1F661F771F8B
:1017B000881FC2F70EC0BA0F621F731F841F48F440
:1017C000879577956795B795F7959E3F08F0B0CFC9
:1017D0009395880F08F09927EE0F979587950895B0
:1017E0000E94610C08F481E008950E94B50C88F015
:1017F0009F5798F0B92F9927B751B0F0E1F0660FD5
:10180000771F881F991F1AF0BA95C9F714C0B13015
:1018100091F00E94CF0CB1E008950C94CF0C672F8B
:10182000782F8827B85F39F0B93FCCF38695779544
:101830006795B395D9F73EF490958095709561952D
:101840007F4F8F4F9F4F0895E89409C097FB3EF458
:1018500090958095709561957F4F8F4F9F4F9923FD
:10186000A9F0F92F96E9BB279395F695879577957B
:101870006795B795F111F8CFFAF4BB0F11F460FF3B
:101880001BC06F5F7F4F8F4F9F4F16C0882311F093
:1018900096E911C0772321F09EE8872F762F05C0A7
:1018A000662371F096E8862F70E060E02AF09A9542
:1018B000660F771F881FDAF7880F9695879597F937
:1018C0000895990F0008550FAA0BE0E8FEEF1616D1
:1018D0001706E807F907C0F012161306E407F50724
:1018E00098F0621B730B840B950B39F40A2661F098
:1018F000232B242B252B21F408950A2609F4A1403B
:10190000A6958FEF811D811D089597F99F6780E847
:1019100070E060E008959FEF80EC089500240A9441
:101920001616170618060906089500240A941216BA
:101930001306140605060895092E0394000C11F4ED
:10194000882352F0BB0F40F4BF2B11F460FF04C09A
:101950006F5F7F4F8F4F9F4F089557FD9058440FF3
:10196000551F59F05F3F71F04795880F97FB991FFE
:1019700061F09F3F79F087950895121613061406BB
:10198000551FF2CF4695F1DF08C016161706180648
:10199000991FF1CF86957105610508940895E89423
:1019A000BB2766277727CB0197F908950E94610C22
:1019B00008F48FEF08950E94EE0C0C949C0C0E948A
:1019C0008E0C38F00E94950C20F0952311F00C94A9
:1019D000850C0C948B0C11240C94D00C0E94AD0C33
:1019E00070F3959FC1F3950F50E0551F629FF00172
:1019F000729FBB27F00DB11D639FAA27F00DB11D8B
:101A0000AA1F649F6627B00DA11D661F829F222713
:101A1000B00DA11D621F739FB00DA11D621F839F9A
:101A2000A00D611D221F749F3327A00D611D231F70
:101A3000849F600D211D822F762F6A2F11249F57BE
:101A400050409AF0F1F088234AF0EE0FFF1FBB1FC1
:101A5000661F771F881F91505040A9F79E3F510580
:101A600080F00C94850C0C94D00C5F3FE4F3983E0E
:101A7000D4F3869577956795B795F795E7959F5F2A
:101A8000C1F7FE2B880F911D9695879597F90895BC
:101A90008F929F92AF92BF92CF92DF92EF92FF927E
:101AA000CF93DF93EC01688179818A819B816115F5
:101AB00071058105910521F464E279ED8BE597E0EC
:101AC0002DE133EF41E050E00E94FA0D49015A0147
:101AD0009B01AC01A7EAB1E40E94190E6B017C01E5
:101AE000ACEEB4EFA50194010E94270EDC01CB01FE
:101AF0008C0D9D1DAE1DBF1DB7FF03C00197A10931
:101B0000B04888839983AA83BB839F77DF91CF9165
:101B1000FF90EF90DF90CF90BF90AF909F908F900D
:101B200008950C94480D84E092E00C94480DB0E0C8
:101B3000A0E08093040290930502A0930602B09364
:101B400007020895FB01DC018D91019080190110BD
:101B5000D9F3990B0895FB01DC014150504048F046
:101B600001900D920020C9F701C01D9241505040D4
:101B7000E0F708954532510520F4423010F00C94FE
:101B8000C50DFB011082CB010895BB274A3031F40B
:101B9000992322F4BDE2909581959F4F0C94D10D2D
:101BA000BB27FB015527AA27880F991FAA1FA41737
:101BB00010F0A41B83955051B9F7A05DAA3308F02B
:101BC000A95DA193009779F7B111B1931192CB015F
:101BD0000C94EA0DDC01FC01672F71917723E1F78A
:101BE000329704C07C916D9370836291AE17BF07EA
:101BF000C8F30895052E97FB1EF400940E94110E61
:101C000057FD07D00E942C0E07FC03D04EF40C9415
:101C1000110E50954095309521953F4F4F4F5F4F96
:101C2000089590958095709561957F4F8F4F9F4F48
:101C300008950E944E0EA59F900DB49F900DA49FF5
:101C4000800D911D11240895B7FF0C94190E0E9468
:101C5000190E821B930B0895A1E21A2EAA1BBB1B1F
:101C6000FD010DC0AA1FBB1FEE1FFF1FA217B30768
:101C7000E407F50720F0A21BB30BE40BF50B661F7E
:101C8000771F881F991F1A9469F760957095809542
:101C900090959B01AC01BD01CF010895A29FB001B9
:101CA000B39FC001A39F700D811D1124911DB29F90
:0E1CB000700D811D1124911D0895F894FFCF31
:101CBE0000007A44010000004B4153414D42412047
:101CCE00532E4D2E00466C6F6F723A00496E766140
:101CDE006C696420466C6F6F720054727920416794
:101CEE0061696E00466C6F6F722069732046756C69
:101CFE006C00466C6F6F723A20004E616D65205B12
:101D0E006D61783D32305D3A0050617373776F725A
:101D1E0064205B6D61783D365D3A0054656E616E90
:101D2E00742061646465640020696E206D616C6C62
:101D3E002E00457363616C61746F72204F6E0045A7
:101D4E007363616C61746F72204F66660054656ECA
:101D5E00616E74733A200041736B2052656E743F4E
:101D6E00205B792F6E5D0052656E74204164646550
:101D7E00640043616E63656C65642E2E2E004E6F9B
:0A1D8E0020436F6D6D616E6421004B
:00000001FF
