:100000000C9472000C942D110C946F110C949300AD
:100010000C9493000C9493000C9493000C94930014
:100020000C9493000C9493000C9493000C94930004
:100030000C9493000C9493000C9493000C949300F4
:100040000C9493000C9493000C9493000C949300E4
:100050000C9493000C9493000C9493000C949300D4
:100060000C9493000C94F6100C9493000C94930051
:100070000C9493000C9493000C9493000C949300B4
:100080000C9493000C9493000C9493000C949300A4
:100090000C9493000C9493000C9493000C94930094
:1000A0000C9493000C9493000C9493000C94930084
:1000B0000C9493000C9493000C9493000C94930074
:1000C0000C9493000C9493000C9493000C94930064
:1000D0000C9493000C9493000C9493000C94930054
:1000E0000C94930011241FBECFEFD1E2DEBFCDBF31
:1000F00000E00CBF13E0A0E0B2E0ECE9F9E200E0C0
:100100000BBF02C007900D92A636B107D9F728E0C1
:10011000A6E6B3E001C01D92A13FB207E1F70E943D
:100120008D100C94CC140C940000CF93DF93CDB7BA
:10013000DEB785EC90E0FC01108284EC90E022E0D8
:10014000FC01208381EC90E028E9FC01208382EC13
:1001500090E026E0FC0120830000DF91CF9108951C
:10016000CF93DF931F92CDB7DEB78983000080EC79
:1001700090E0FC018081882F90E080729927892B84
:10018000B1F386EC90E02981FC01208300000F9000
:10019000DF91CF910895CF93DF931F921F92CDB738
:1001A000DEB79A8389830BC089819A819C012F5F76
:1001B0003F4F3A832983FC0180810E94B0008981EE
:1001C0009A81FC018081882379F700000F900F90BD
:1001D000DF91CF910895CF93DF93CDB7DEB70000C5
:1001E00080EC90E0FC0180818823D4F786EC90E0DD
:1001F000FC018081DF91CF910895CF93DF93CDB73C
:10020000DEB76C970FB6F894DEBF0FBECDBF82E0AD
:1002100091E0FC01208182E091E02068FC012083D4
:1002200080E090E0A0E8BFE38F87988BA98BBA8B22
:1002300020E030E04AE753E46F85788989899A891C
:100240000E944A13DC01CB018B8B9C8BAD8BBE8B48
:1002500020E030E040E85FE36B897C898D899E89EE
:100260000E945F1288232CF481E090E0988F8F8B9E
:100270003FC020E03FEF4FE757E46B897C898D89D1
:100280009E890E94451318164CF520E030E040E2AC
:1002900051E46F85788989899A890E944A13DC0123
:1002A000CB01BC01CD010E946412DC01CB01988F0F
:1002B0008F8B0FC089E190E09A8F898F898D9A8DFD
:1002C0000197F1F79A8F898F8F89988D0197988F71
:1002D0008F8B8F89988D892B69F714C06B897C89E6
:1002E0008D899E890E946412DC01CB01988F8F8BCF
:1002F0008F89988D9C8F8B8F8B8D9C8D0197F1F7BB
:100300009C8F8B8F82E091E0FC01208182E091E064
:100310002F77FC01208380E090E0A0E8BFE3898391
:100320009A83AB83BC8320E030E04AE753E46981E1
:100330007A818B819C810E944A13DC01CB018D83E1
:100340009E83AF83B88720E030E040E85FE36D81B3
:100350007E818F8198850E945F1288232CF481E032
:1003600090E09A8789873FC020E03FEF4FE757E44E
:100370006D817E818F8198850E94451318164CF5FA
:1003800020E030E040E251E469817A818B819C81F8
:100390000E944A13DC01CB01BC01CD010E94641212
:1003A000DC01CB019A8789870FC089E190E09C87A7
:1003B0008B878B859C850197F1F79C878B87898537
:1003C0009A8501979A87898789859A85892B69F704
:1003D00014C06D817E818F8198850E946412DC013A
:1003E000CB019A87898789859A859E878D878D8598
:1003F0009E850197F1F79E878D8700006C960FB65A
:10040000F894DEBF0FBECDBFDF91CF910895CF939B
:10041000DF931F92CDB7DEB7898388E091E0298111
:10042000FC01208382E091E0FC01208182E091E0E8
:100430002F7DFC01208382E091E0FC01208182E09D
:1004400091E02F7BFC0120830E94FD0000000F90B3
:10045000DF91CF910895CF93DF931F92CDB7DEB791
:10046000898388E091E02981FC01208382E091E08A
:10047000FC01208182E091E02062FC01208382E087
:1004800091E0FC01208182E091E02F7BFC01208340
:100490000E94FD0000000F90DF91CF910895CF934F
:1004A000DF93CDB7DEB781E00E9407020000DF9145
:1004B000CF910895CF93DF931F921F92CDB7DEB7F0
:1004C0009A8389830BC089819A819C012F5F3F4F5A
:1004D0003A832983FC0180810E942B0289819A81C1
:1004E000FC018081882379F70F900F90DF91CF91E5
:1004F0000895CF93DF93CDB7DEB76E970FB6F8941C
:10050000DEBF0FBECDBF87E091E02FEFFC0120835F
:1005100080E090E0A0EAB1E4898B9A8BAB8BBC8B36
:1005200020E030E04AE753E469897A898B899C8925
:100530000E944A13DC01CB018D8B9E8BAF8BB88F51
:1005400020E030E040E85FE36D897E898F89988DF7
:100550000E945F1288232CF481E090E09A8F898FAB
:100560003FC020E03FEF4FE757E46D897E898F89D8
:10057000988D0E94451318164CF520E030E040E2BB
:1005800051E469897A898B899C890E944A13DC012C
:10059000CB01BC01CD010E946412DC01CB019A8F1A
:1005A000898F0FC089E190E09C8F8B8F8B8D9C8D04
:1005B0000197F1F79C8F8B8F898D9A8D01979A8F78
:1005C000898F898D9A8D892B69F714C06D897E89F1
:1005D0008F89988D0E946412DC01CB019A8F898FDC
:1005E000898D9A8D9E8F8D8F8D8D9E8D0197F1F7C0
:1005F0009E8F8D8F88E30E9407028CE00E94070285
:100600000E944F0280E090E0A0E0B0E48B839C83E6
:10061000AD83BE8320E030E04AE753E46B817C8108
:100620008D819E810E944A13DC01CB018F839887C4
:10063000A987BA8720E030E040E85FE36F817885E2
:1006400089859A850E945F1288232CF481E090E0CE
:100650009C878B873FC020E03FEF4FE757E46F81D7
:10066000788589859A850E94451318164CF520E0F7
:1006700030E040E251E46B817C818D819E810E945B
:100680004A13DC01CB01BC01CD010E946412DC01E4
:10069000CB019C878B870FC089E190E09E878D8777
:1006A0008D859E850197F1F79E878D878B859C852B
:1006B00001979C878B878B859C85892B69F714C054
:1006C0006F81788589859A850E946412DC01CB014F
:1006D0009C878B878B859C85988B8F878F85988946
:1006E0000197F1F7988B8F8788E091E0FC011082E9
:1006F00086E00E9407028AE092E09A8389838981DA
:100700009A810E945A0200006E960FB6F894DEBFDE
:100710000FBECDBFDF91CF910895CF93DF93CDB7BB
:10072000DEB764970FB6F894DEBF0FBECDBF9C8BCB
:100730008B8B9E012D5F3F4F8B899C894AE050E057
:10074000B9010E942914CE0103969A8389830BC0B4
:1007500089819A81FC0180810E942B0289819A8182
:1007600001969A83898389819A81FC0180818823FB
:1007700079F7000064960FB6F894DEBF0FBECDBFC8
:10078000DF91CF910895CF93DF9300D000D0CDB704
:10079000DEB7F8940E9495000E94221080E390E05A
:1007A00021E0FC01208381E091E020EEFC01208328
:1007B00082E091E02FE1FC0120830E94790281E236
:1007C00090E02FEFFC01208382E290E0FC01108298
:1007D0001A82198284C089819A8101969E838D83B1
:1007E0008091020290910302A0910402B09105024F
:1007F000BC01CD010E946412DC01CB019C838B8380
:100800008D819E818230910519F00397E1F040C0FF
:100810008091020290910302A0910402B09105021E
:1008200020E030E040E45FE3BC01CD010E944A13C8
:10083000DC01CB01BC01CD010E946412DC01CB01C3
:100840009C838B8325C08091020290910302A0912A
:100850000402B091050220E030E040E45FE3BC0117
:10086000CD010E944A13DC01CB0120E030E040E4DE
:100870005FE3BC01CD010E944A13DC01CB01BC0146
:10088000CD010E946412DC01CB019C838B830000AC
:100890002D8189819A81880F991F880F991F82560F
:1008A000984FFC01208389819A81880F991F880FB6
:1008B000991F8056984F2B813C81FC013183208306
:1008C00089819A81880F991F880F991F8156984FA7
:1008D000FC01108289819A8101969A83898389819A
:1008E0009A8103970CF477CF7894000026960FB680
:1008F000F894DEBF0FBECDBFDF91CF910895CF93A7
:10090000DF93CDB7DEB7CF55D1090FB6F894DEBF70
:100910000FBECDBF1D820E944F0287E192E00E9470
:100920005A020E94EB008E838E8180538D838D81CD
:10093000882321F08D81843008F4F1C00E944F0299
:100940008EE192E00E945A0280E090E0AAE7B4E4CF
:100950008B8F9C8FAD8FBE8F20E030E04AE753E451
:100960006B8D7C8D8D8D9E8D0E944A13DC01CB0199
:100970008F8F98A3A9A3BAA320E030E040E85FE3FB
:100980006F8D78A189A19AA10E945F1288232CF40F
:1009900081E090E09CA38BA33FC020E03FEF4FE7B6
:1009A00057E46F8D78A189A19AA10E94451318166A
:1009B0004CF520E030E040E251E46B8D7C8D8D8D74
:1009C0009E8D0E944A13DC01CB01BC01CD010E9427
:1009D0006412DC01CB019CA38BA30FC089E190E0E2
:1009E0009EA38DA38DA19EA10197F1F79EA38DA338
:1009F0008BA19CA101979CA38BA38BA19CA1892B6C
:100A000069F714C06F8D78A189A19AA10E94641220
:100A1000DC01CB019CA38BA38BA19CA198A78FA3E6
:100A20008FA198A50197F1F798A78FA30E944F0275
:100A30008CE292E00E945A0280E090E0AAE7B4E4DF
:100A40008D879E87AF87B88B20E030E04AE753E47C
:100A50006D857E858F8598890E944A13DC01CB01C4
:100A6000898B9A8BAB8BBC8B20E030E040E85FE356
:100A700069897A898B899C890E945F1288232CF46A
:100A800081E090E09E8B8D8B3FC020E03FEF4FE7F1
:100A900057E469897A898B899C890E9445131816C5
:100AA0004CF520E030E040E251E46D857E858F8595
:100AB00098890E944A13DC01CB01BC01CD010E9440
:100AC0006412DC01CB019E8B8D8B0FC089E190E01D
:100AD000988F8F8B8F89988D0197F1F7988F8F8BD7
:100AE0008D899E8901979E8B8D8B8D899E89892BFF
:100AF00069F7CAC069897A898B899C890E946412C6
:100B0000DC01CB019E8B8D8B8D899E899A8F898F7D
:100B1000898D9A8D0197F1F79A8F898FB5C08D8154
:100B2000882F90E00197880F991F880F991F825690
:100B3000984F98878F830E944F028F819885FC0180
:100B400081818A3028F086E392E00E945A029CC09C
:100B500084E492E00E945A028D81882F90E00E94E6
:100B60008D0380E090E0AAEFB3E489A79AA7ABA732
:100B7000BCA720E030E04AE753E469A57AA58BA53D
:100B80009CA50E944A13DC01CB018DA79EA7AFA7AD
:100B9000B8AB20E030E040E85FE36DA57EA58FA50F
:100BA00098A90E945F1288232CF481E090E09AAB10
:100BB00089AB3FC020E03FEF4FE757E46DA57EA52E
:100BC0008FA598A90E94451318164CF520E030E037
:100BD00040E251E469A57AA58BA59CA50E944A1321
:100BE000DC01CB01BC01CD010E946412DC01CB0110
:100BF0009AAB89AB0FC089E190E09CAB8BAB8BA922
:100C00009CA90197F1F79CAB8BAB89A99AA9019795
:100C10009AAB89AB89A99AA9892B69F714C06DA5EC
:100C20007EA58FA598A90E946412DC01CB019AAB26
:100C300089AB89A99AA99EAB8DAB8DA99EA9019775
:100C4000F1F79EAB8DAB0E944F0200008D81882F83
:100C500090E00197880F991F880F991F8256984F2F
:100C60009A8789878CE492E00E945A02CE018B5BBE
:100C70009F4F24E1FC01322F11923A95E9F71A8235
:100C800019821C821B8201C046CE0E94EB008B871A
:100C900089819A81892B31F40E944F0281E090E092
:100CA0009A8389838B819C814397DCF48B819C811F
:100CB0009C012F5F3F4F3C832B839E012B5B3F4F5B
:100CC000820F931F2B85FC0120839E012B5B3F4FDE
:100CD0008B819C81820F931FFC0110828B850E9467
:100CE0002B028B85882339F08B858A3021F08B8508
:100CF0008D3009F0CACF0E944F028BE592E00E942E
:100D00005A02CE01875A9F4F27E0FC01322F1192E1
:100D10003A95E9F71C821B821A8219820E94EB0025
:100D20008C8789819A81892B31F40E944F0281E05E
:100D300090E09A8389838B819C810697DCF48B8178
:100D40009C819C012F5F3F4F3C832B839E01275A40
:100D50003F4F820F931F2C85FC0120839E01275A51
:100D60003F4F8B819C81820F931FFC0110828AE28E
:100D70000E942B028C85882339F08C858A3021F0E3
:100D80008C858D3009F0CACF0E944F0280910002FD
:100D9000909101022091000230910102AC0164E2C5
:100DA000629FC001639F900D11248A599C4FFC01E2
:100DB00051834083209100023091010244E2429F1E
:100DC000C001439F900D112481599C4F29853A857C
:100DD000FC0131832083209100023091010244E222
:100DE000429FC001439F900D112487579C4F21E0E3
:100DF000FC012083209100023091010244E2429FD5
:100E0000C001439F900D11240F968A599C4F9E015B
:100E10002B5B3F4F44E150E0B9010E941A1420912E
:100E200000023091010244E2429FC001439F900DB5
:100E3000112402968A599C4F9E01275A3F4F47E042
:100E400050E0B9010E941A1489859A85FC018181BC
:100E500021E0280F89859A85FC0121838091000279
:100E600090910102019690930102809300028DE619
:100E700092E00E945A0280E090E8ABE3B4E48FABCA
:100E800098AFA9AFBAAF20E030E04AE753E46FA9CA
:100E900078AD89AD9AAD0E944A13DC01CB018BAFCE
:100EA0009CAFADAFBEAF20E030E040E85FE36BAD9C
:100EB0007CAD8DAD9EAD0E945F12882344F421E08D
:100EC00030E0CE01CF96FC01318320835FC020E06B
:100ED0003FEF4FE757E46BAD7CAD8DAD9EAD0E940B
:100EE000451318160CF044C020E030E040E251E415
:100EF0006FA978AD89AD9AAD0E944A13DC01CB0190
:100F0000BC01CD010E946412DC01CB019E01215C79
:100F10003F4FF9019183808323C0CE018F5B9F4FA8
:100F200029E130E0FC0131832083CE018F5B9F4FAC
:100F3000FC01808191810197F1F79E012F5B3F4F6A
:100F4000F90191838083CE01CF96FC01808191814C
:100F50009C0121503109CE01CF96FC0131832083C1
:100F6000CE01CF96FC0180819181892BB1F628C0FA
:100F70006BAD7CAD8DAD9EAD0E946412DC01CB01EA
:100F80009E01215C3F4FF90191838083CE018D5BEF
:100F90009F4F9E01215C3F4FF90120813181FC016F
:100FA00031832083CE018D5B9F4FFC018081918135
:100FB0000197F1F79E012D5B3F4FF90191838083EB
:100FC0000E944F028AE792E00E945A0280E090E07D
:100FD000C15ADF4F0FB6F894DEBF0FBECDBFDF9111
:100FE000CF910895CF93DF93CDB7DEB780E090E047
:100FF0000E94B711DC01CB01BC01CD01DF91CF9183
:101000000895CF93DF9300D000D000D01F92CDB7CA
:10101000DEB79A8789871A82198241C029813A816D
:1010200044E2429FC001439F900D112487579C4F7B
:10103000FC018081882371F129813A8144E2429F39
:10104000C001439F900D112402968A599C4F298517
:101050003A85B9010E941114892BE1F429813A8162
:1010600044E2429FC001439F900D11248F589C4F32
:10107000FC0180819181A281B38120E030E0A9014F
:10108000BC01CD010E945F12181614F081E06AC005
:1010900080E068C089819A8101969A8389838981D9
:1010A0009A814E970CF4BACF0E94F207DC01CB0173
:1010B0008D839E83AF83B8871C821B824DC02B819A
:1010C0003C81C901880F991F880F991F880F991FAC
:1010D000821B930B880F991F8954984FFC018081C4
:1010E0008823A9F12B813C81C901880F991F880FA2
:1010F000991F880F991F821B930B880F991F865584
:10110000984F29853A85B9010E941114892BF9F469
:101110002B813C81C901880F991F880F991F880F67
:10112000991F821B930B880F991F8F54984FFC01B6
:1011300080819181A281B3812D813E814F8158852B
:10114000281739074A075B0710F481E00BC08B8131
:101150009C8101969C838B838B819C8144970CF4AA
:10116000AECF80E02A960FB6F894DEBF0FBECDBF9B
:10117000DF91CF910895CF93DF931F92CDB7DEB764
:1011800089830E944F028981813031F48091EA087D
:101190008F5F8093EA0805C08091EB088F5F809392
:1011A000EB088091E6089091E70801969093E70894
:1011B0008093E6088091E6089091E7080E948D03ED
:1011C00087E892E00E945A0200000F90DF91CF91D1
:1011D0000895CF93DF93CDB7DEB70E944F02809181
:1011E000E6089091E708892B71F08091E6089091CC
:1011F000E70801979093E7088093E6088091EC0850
:101200008F5F8093EC088091E6089091E7080E9438
:101210008D0387E892E00E945A020000DF91CF918F
:101220000895CF93DF9300D000D000D01F921F927B
:10123000CDB7DEB79B878A8727E0CE010396FC01F6
:10124000322F11923A95E9F71A82198216C00E943C
:1012500002142AE030E0B9010E94CA11482F9E0111
:101260002D5F3F4F89819A81820F931FFC0140833C
:1012700089819A8101969A83898389819A810697C7
:1012800034F31A869E012D5F3F4F8A859B8542E08D
:1012900050E0B9010E941A1400002B960FB6F89482
:1012A000DEBF0FBECDBFDF91CF910895CF93DF9307
:1012B00000D000D01F921F92CDB7DEB79C838B83E6
:1012C0004D835E836F8378871A82198273C0298168
:1012D0003A81C901880F991F880F991F880F991F9C
:1012E000821B930B880F991F8954984FFC018081B2
:1012F000882309F05AC029813A81C901880F991FB2
:10130000880F991F880F991F821B930B880F991FB5
:101310008655984F0E94110929813A81C901880F89
:10132000991F880F991F880F991F821B930B880F95
:10133000991F8B54984F2B813C81FC013183208372
:1013400080E090E00E94B7119B01AC018D819E81ED
:10135000AF81B885280F391F4A1F5B1F69817A81C9
:10136000CB01880F991F880F991F880F991F861B23
:10137000970B880F991F8F54984FFC01208331835E
:101380004283538329813A81C901880F991F880FAD
:10139000991F880F991F821B930B880F991F8954DF
:1013A000984F21E0FC0120830AC089819A8101962F
:1013B0009A83898389819A8144970CF488CF0000AD
:1013C00028960FB6F894DEBF0FBECDBFDF91CF9148
:1013D0000895CF93DF931F92CDB7DEB789838981BC
:1013E000882371F082E290E0FC01208182E290E0AB
:1013F0002160FC01208381E992E00E945A020DC025
:1014000082E290E0FC01208182E290E02E7FFC01EC
:1014100020838EE992E00E945A0200000F90DF9133
:10142000CF910895CF93DF9300D01F92CDB7DEB751
:101430001A8219821C821B8218C02B813C8144E2D3
:10144000429FC001439F900D112487579C4FFC0180
:101450008081882329F089819A8101969A838983E2
:101460008B819C8101969C838B838B819C814E9781
:1014700024F30E944F028CEA92E00E945A02898172
:101480009A810E948D0300000F900F900F900F9093
:10149000DF91CF910895CF93DF931F92CDB7DEB741
:1014A00089830E944F028981813051F48091E8083C
:1014B0009091E90801969093E9088093E8080FC09D
:1014C0008091E8089091E908892B49F08091E8081B
:1014D0009091E90801979093E9088093E80886EBDA
:1014E00092E00E945A028091E8089091E9080E94D7
:1014F0008D0300000F90DF91CF910895CF92DF927E
:10150000EF92FF92CF93DF93CDB7DEB72F970FB651
:10151000F894DEBF0FBECDBF8F870E944F028F852C
:10152000082E000C990B85369105B1F08636910591
:101530003CF481369105C1F08436910589F012C1E1
:101540008237910509F49BC08337910509F494C053
:101550008736910561F006C181E00E94E90908C162
:1015600080E00E94E90904C10E947F0401C181EC6E
:1015700092E00E945A0219821A820E94EB00898727
:101580008981882321F40E944F0281E08983898523
:101590008823E1F089858A30C9F089858D30B1F0E2
:1015A0008A81823090F48A8191E0980F9A83882F03
:1015B00090E09E01245F3F4F820F931F2985FC011D
:1015C000208389850E942B02D8CF0000CE010C9683
:1015D000C0979B878A871B821D821C823AC02C8100
:1015E0003D8144E2429FC001439F900D11248757E3
:1015F0009C4FFC018081882339F12C813D8144E29C
:10160000429FC001439F900D11248A599C4FFC01B9
:10161000208131818A859B8528173907A9F42C817F
:101620003D8144E2429FC001439F900D11248A599D
:101630009C4FFC018081918148E552E060E070E0C0
:101640000E94560981E08B838C819D8101969D8348
:101650008C838C819D814E9714F28B81882309F0B5
:1016600086C00E944F028EEC92E00E945A028A8548
:101670009B850E948D037BC00E94120A79C08CED6D
:1016800092E00E945A020E94EB0088870E944F025B
:101690008885893709F061C01F821E8253C02E8160
:1016A0003F8144E2429FC001439F900D1124875720
:1016B0009C4FFC018081882309F43FC02E813F812B
:1016C00044E2429FC001439F900D11248F589C4FCC
:1016D000FC01C080D180E280F3802E813F8144E212
:1016E000429FC001439F900D112481599C4FFC01E2
:1016F00080819181FC0182819381CC01A0E0B0E0E6
:10170000BC01CD010E949312DC01CB019C01AD0113
:10171000C701B6010E94F311DC01CB014E815F814C
:1017200064E2649F9001659F300D11242F583C4F57
:10173000F90180839183A283B3838E819F81019677
:101740009F838E838E819F818833944008F4A7CF36
:101750008CEE92E00E945A020BC087EF92E00E944A
:101760005A0206C083E093E00E945A0201C00000C2
:1017700000002F960FB6F894DEBF0FBECDBFDF91ED
:10178000CF91FF90EF90DF90CF900895CF93DF93AC
:101790001F921F92CDB7DEB71A8219820EC029811F
:1017A0003A81C901880F991F820F931F880F991FD3
:1017B00089819A8101969A83898389819A81069782
:1017C00074F300000F900F90DF91CF9108950F9365
:1017D0001F93CF93DF93CDB7DEB7C256D1090FB6B3
:1017E000F894DEBF0FBECDBF9E012B5A3F4F80E065
:1017F00090E0A8ECB2E4F90180839183A283B383E3
:101800008E01075A1F4FCE018B5A9F4F20E030E0C8
:101810004AE753E4FC0160817181828193810E94D7
:101820004A13DC01CB01F80180839183A283B38347
:10183000CE01875A9F4F20E030E040E85FE3FC0193
:1018400060817181828193810E945F1288234CF4B0
:10185000CE01835A9F4F21E030E0FC013183208389
:101860006DC0CE01875A9F4F20E03FEF4FE757E40E
:10187000FC0160817181828193810E944513181659
:101880000CF04AC0CE018B5A9F4F20E030E040E27E
:1018900051E4FC0160817181828193810E944A132D
:1018A000DC01CB018E01035A1F4FBC01CD010E9408
:1018B0006412DC01CB01F8019183808324C0CE0146
:1018C000815A9F4F29E130E0FC0131832083CE0112
:1018D000815A9F4FFC01808191810197F1F79E0110
:1018E000215A3F4FF90191838083CE01835A9F4F44
:1018F0009E01235A3F4FF901208131812150310946
:10190000FC0131832083CE01835A9F4FFC018081EB
:101910009181892BA1F62CC08E01035A1F4FCE0155
:10192000875A9F4FFC0160817181828193810E945F
:101930006412DC01CB01F80191838083CE018F59C1
:101940009F4F9E01235A3F4FF90120813181FC01B5
:1019500031832083CE018F599F4FFC01808191817B
:101960000197F1F79E012F593F4FF9019183808331
:101970008FE093E00E94CB009E01295B3F4F80E007
:1019800090E0AAEFB3E4F90180839183A283B3834B
:101990008E01055B1F4FCE01895B9F4F20E030E039
:1019A0004AE753E4FC0160817181828193810E9446
:1019B0004A13DC01CB01F80180839183A283B383B6
:1019C000CE01855B9F4F20E030E040E85FE3FC0103
:1019D00060817181828193810E945F1288234CF41F
:1019E000CE01815B9F4F21E030E0FC0131832083F9
:1019F0006DC0CE01855B9F4F20E03FEF4FE757E47E
:101A0000FC0160817181828193810E9445131816C7
:101A10000CF04AC0CE01895B9F4F20E030E040E2ED
:101A200051E4FC0160817181828193810E944A139B
:101A3000DC01CB018E01015B1F4FBC01CD010E9477
:101A40006412DC01CB01F8019183808324C0CE01B4
:101A50008F5A9F4F29E130E0FC0131832083CE0172
:101A60008F5A9F4FFC01808191810197F1F79E0170
:101A70002F5A3F4FF90191838083CE01815B9F4FA5
:101A80009E01215B3F4FF9012081318121503109B5
:101A9000FC0131832083CE01815B9F4FFC0180815B
:101AA0009181892BA1F62CC08E01015B1F4FCE01C5
:101AB000855B9F4FFC0160817181828193810E94CF
:101AC0006412DC01CB01F80191838083CE018D5A31
:101AD0009F4F9E01215B3F4FF90120813181FC0125
:101AE00031832083CE018D5A9F4FFC0180819181EB
:101AF0000197F1F79E012D5A3F4FF90191838083A1
:101B000084E193E00E94CB0080E090E0AAEFB3E490
:101B100089AF9AAFABAFBCAF20E030E04AE753E407
:101B200069AD7AAD8BAD9CAD0E944A13DC01CB014F
:101B30009E01235C3F4FF90180839183A283B3838D
:101B400020E030E040E85FE3CE01CD96FC0160810B
:101B50007181828193810E945F1288234CF4CE01AF
:101B60008F5B9F4F21E030E0FC013183208367C011
:101B700020E03FEF4FE757E4CE01CD96FC016081B6
:101B80007181828193810E94451318160CF046C022
:101B900020E030E040E251E469AD7AAD8BAD9CAD20
:101BA0000E944A13DC01CB018E010F5B1F4FBC0169
:101BB000CD010E946412DC01CB01F8019183808386
:101BC00024C0CE018D5B9F4F29E130E0FC013183C1
:101BD0002083CE018D5B9F4FFC0180819181019715
:101BE000F1F79E012D5B3F4FF90191838083CE0178
:101BF0008F5B9F4F9E012F5B3F4FF9012081318109
:101C000021503109FC0131832083CE018F5B9F4F2E
:101C1000FC0180819181892BA1F62BC08E010F5B85
:101C20001F4FCE01CD96FC0160817181828193812D
:101C30000E946412DC01CB01F80191838083CE0104
:101C40008B5B9F4F9E012F5B3F4FF90120813181BC
:101C5000FC0131832083CE018B5B9F4FFC0180818F
:101C600091810197F1F79E012B5B3F4FF901918321
:101C7000808389E293E00E94CB0080E090E0AAEFAD
:101C8000B3E48BA79CA7ADA7BEA720E030E04AE74E
:101C900053E46BA57CA58DA59EA50E944A13DC018B
:101CA000CB018FA798ABA9ABBAAB20E030E040E8FE
:101CB0005FE36FA578A989A99AA90E945F1288237A
:101CC0002CF481E090E09CAB8BAB3FC020E03FEF79
:101CD0004FE757E46FA578A989A99AA90E944513EF
:101CE00018164CF520E030E040E251E46BA57CA5ED
:101CF0008DA59EA50E944A13DC01CB01BC01CD013C
:101D00000E946412DC01CB019CAB8BAB0FC089E15C
:101D100090E09EAB8DAB8DA99EA90197F1F79EAB8C
:101D20008DAB8BA99CA901979CAB8BAB8BA99CA974
:101D3000892B69F714C06FA578A989A99AA90E946F
:101D40006412DC01CB019CAB8BAB8BA99CA998AF37
:101D50008FAB8FA998AD0197F1F798AF8FAB87E361
:101D600093E00E94CB0080E090E0AAEFB3E48D8F77
:101D70009E8FAF8FB8A320E030E04AE753E46D8D2B
:101D80007E8D8F8D98A10E944A13DC01CB0189A31F
:101D90009AA3ABA3BCA320E030E040E85FE369A1D5
:101DA0007AA18BA19CA10E945F1288232CF481E070
:101DB00090E09EA38DA33FC020E03FEF4FE757E4A4
:101DC00069A17AA18BA19CA10E94451318164CF51C
:101DD00020E030E040E251E46D8D7E8D8F8D98A142
:101DE0000E944A13DC01CB01BC01CD010E946412A8
:101DF000DC01CB019EA38DA30FC089E190E098A7E1
:101E00008FA38FA198A50197F1F798A78FA38DA114
:101E10009EA101979EA38DA38DA19EA1892B69F7F9
:101E200014C069A17AA18BA19CA10E946412DC015B
:101E3000CB019EA38DA38DA19EA19AA789A789A559
:101E40009AA50197F1F79AA789A782E493E00E94E7
:101E5000CB0080E090E0AAEFB3E48F87988BA98B4A
:101E6000BA8B20E030E04AE753E46F8578898989AE
:101E70009A890E944A13DC01CB018B8B9C8BAD8B22
:101E8000BE8B20E030E040E85FE36B897C898D8980
:101E90009E890E945F1288232CF481E090E0988F45
:101EA0008F8B3FC020E03FEF4FE757E46B897C8981
:101EB0008D899E890E94451318164CF520E030E06C
:101EC00040E251E46F85788989899A890E944A1392
:101ED000DC01CB01BC01CD010E946412DC01CB010D
:101EE000988F8F8B0FC089E190E09A8F898F898DB1
:101EF0009A8D0197F1F79A8F898F8F89988D019725
:101F0000988F8F8B8F89988D892B69F714C06B8977
:101F10007C898D899E890E946412DC01CB01988F97
:101F20008F8B8F89988D9C8F8B8F8B8D9C8D01973C
:101F3000F1F79C8F8B8F8EE493E00E94CB0080E0C2
:101F400090E0AAEFB3E489839A83AB83BC8320E05B
:101F500030E04AE753E469817A818B819C810E9459
:101F60004A13DC01CB018D839E83AF83B88720E0C9
:101F700030E040E85FE36D817E818F8198850E942B
:101F80005F1288232CF481E090E09A8789873FC014
:101F900020E03FEF4FE757E46D817E818F81988588
:101FA0000E94451318164CF520E030E040E251E461
:101FB00069817A818B819C810E944A13DC01CB016B
:101FC000BC01CD010E946412DC01CB019A87898794
:101FD0000FC089E190E09C878B878B859C8501975A
:101FE000F1F79C878B8789859A8501979A878987DE
:101FF00089859A85892B69F714C06D817E818F81CF
:1020000098850E946412DC01CB019A8789878985B3
:102010009A859E878D878D859E850197F1F79E878E
:102020008D878BE593E00E94CB000000CE59DF4FF7
:102030000FB6F894DEBF0FBECDBFDF91CF911F91D9
:102040000F910895CF93DF93CDB7DEB78AE290E08A
:10205000FC0120818AE290E02E7FFC0120838AE24D
:1020600090E0FC0120818AE290E02D7FFC0120833A
:102070008BE290E0FC0120818BE290E02160FC018A
:1020800020838BE290E0FC0120818BE290E02260D3
:10209000FC01208389E690E0FC01208189E690E044
:1020A0002360FC01208389E690E0FC01208189E621
:1020B00090E02C60FC0120838DE390E0FC01208106
:1020C0008DE390E02360FC0120830000DF91CF913D
:1020D0000895CF93DF9300D0CDB7DEB789837B839C
:1020E0006A838981282F30E081E090E002C0880F68
:1020F000991F2A95E2F79C018A819B818223932371
:10210000892B19F481E090E002C080E090E00F900C
:102110000F900F90DF91CF910895CF93DF9300D070
:1021200000D0CDB7DEB70E94C30380E091E0FC0190
:102130008081882F90E0BC0182E00E9469109A8320
:10214000898389819A81892B81F081E00E94BB0873
:10215000000080E091E0FC018081882F90E0BC01CC
:1021600082E00E946910892BA1F780E091E0FC01D8
:102170008081882F90E0BC0183E00E9469109C83DD
:102180008B838B819C81892B81F082E00E94BB082C
:10219000000080E091E0FC018081882F90E0BC018C
:1021A00083E00E946910892BA1F780E091E0FC0197
:1021B0008081882F90E0BC0184E00E9469109E839A
:1021C0008D838D819E81892B09F4AFCF0E94E90810
:1021D000000080E091E0FC018081882F90E0BC014C
:1021E00084E00E946910892BA1F79FCF1F920F9264
:1021F0000FB60F9211240BB60F922F933F934F936C
:102200005F936F937F938F939F93AF93BF93EF935E
:10221000FF93CF93DF931F92CDB7DEB786EC90E0AC
:10222000FC018081898389810E947E0A00000F90D1
:10223000DF91CF91FF91EF91BF91AF919F918F91DE
:102240007F916F915F914F913F912F910F900BBEB6
:102250000F900FBE0F901F9018951F920F920FB600
:102260000F9211240BB60F922F933F934F935F93CE
:102270006F937F938F939F93AF93BF93EF93FF934E
:10228000CF93DF93CDB7DEB78091E8089091E9084E
:1022900001969093E9088093E8080E944F0286EB2C
:1022A00092E00E945A028091E8089091E9080E9409
:1022B0008D030000DF91CF91FF91EF91BF91AF911E
:1022C0009F918F917F916F915F914F913F912F914E
:1022D0000F900BBE0F900FBE0F901F9018951F927E
:1022E0000F920FB60F9211240BB60F922F933F93BC
:1022F0004F935F936F937F938F939F93AF93BF930E
:10230000EF93FF93CF93DF93CDB7DEB78091E808CB
:102310009091E908892B49F08091E8089091E908AB
:1023200001979093E9088093E8080E944F0286EB9A
:1023300092E00E945A028091E8089091E9080E9478
:102340008D030000DF91CF91FF91EF91BF91AF918D
:102350009F918F917F916F915F914F913F912F91BD
:102360000F900BBE0F900FBE0F901F901895FC01A1
:102370000FB6F8946091ED087091EE088091EF0827
:102380009091F0080FBE309721F0608371838283B3
:102390009383089597FB072E16F4009407D077FDDA
:1023A00009D00E94DE1107FC05D03EF4909581957E
:1023B0009F4F0895709561957F4F0895AA1BBB1B91
:1023C00051E107C0AA1FBB1FA617B70710F0A61B35
:1023D000B70B881F991F5A95A9F780959095BC0156
:1023E000CD0108955058BB27AA270E940A120C94C9
:1023F0000B130E94FD1238F00E94041320F039F4F0
:102400009F3F19F426F40C94FA120EF4E095E7FBC2
:102410000C94F412E92F0E941C1358F3BA176207A8
:1024200073078407950720F079F4A6F50C943E1302
:102430000EF4E0950B2EBA2FA02D0B01B9019001DF
:102440000C01CA01A0011124FF27591B99F0593F23
:1024500050F4503E68F11A16F040A22F232F342F6B
:102460004427585FF3CF469537952795A795F040B9
:102470005395C9F77EF41F16BA0B620B730B840BCE
:10248000BAF09150A1F0FF0FBB1F661F771F881F86
:10249000C2F70EC0BA0F621F731F841F48F48795DE
:1024A00077956795B795F7959E3F08F0B0CF9395D0
:1024B000880F08F09927EE0F9795879508950E9449
:1024C000D01208F481E008950E94241388F09F57E9
:1024D00098F0B92F9927B751B0F0E1F0660F771F48
:1024E000881F991F1AF0BA95C9F714C0B13091F03E
:1024F0000E943E13B1E008950C943E13672F782F8D
:102500008827B85F39F0B93FCCF386957795679502
:10251000B395D9F73EF490958095709561957F4F6E
:102520008F4F9F4F0895E89409C097FB3EF4909514
:102530008095709561957F4F8F4F9F4F9923A9F09C
:10254000F92F96E9BB279395F6958795779567952B
:10255000B795F111F8CFFAF4BB0F11F460FF1BC06F
:102560006F5F7F4F8F4F9F4F16C0882311F096E902
:1025700011C0772321F09EE8872F762F05C06623B0
:1025800071F096E8862F70E060E02AF09A95660F69
:10259000771F881FDAF7880F9695879597F9089522
:1025A000990F0008550FAA0BE0E8FEEF1616170664
:1025B000E807F907C0F012161306E407F50798F0CC
:1025C000621B730B840B950B39F40A2661F0232BE5
:1025D000242B252B21F408950A2609F4A140A69561
:1025E0008FEF811D811D089597F99F6780E870E046
:1025F00060E008959FEF80EC089500240A94161679
:10260000170618060906089500240A9412161306E0
:10261000140605060895092E0394000C11F488236E
:1026200052F0BB0F40F4BF2B11F460FF04C06F5F8A
:102630007F4F8F4F9F4F089557FD9058440F551F60
:1026400059F05F3F71F04795880F97FB991F61F034
:102650009F3F79F087950895121613061406551FAB
:10266000F2CF4695F1DF08C0161617061806991F17
:10267000F1CF86957105610508940895E894BB270C
:1026800066277727CB0197F908950E94D01208F4A6
:102690008FEF08950E945D130C940B130E94FD129E
:1026A00038F00E94041320F0952311F00C94F412DA
:1026B0000C94FA1211240C943F130E941C1370F313
:1026C000959FC1F3950F50E0551F629FF001729FD7
:1026D000BB27F00DB11D639FAA27F00DB11DAA1FE6
:1026E000649F6627B00DA11D661F829F2227B00D33
:1026F000A11D621F739FB00DA11D621F839FA00DBE
:10270000611D221F749F3327A00D611D231F849F0D
:10271000600D211D822F762F6A2F11249F57504064
:102720009AF0F1F088234AF0EE0FFF1FBB1F661FDF
:10273000771F881F91505040A9F79E3F510580F0A8
:102740000C94F4120C943F135F3FE4F3983ED4F3DF
:10275000869577956795B795F795E7959F5FC1F74C
:10276000FE2B880F911D9695879597F908958F9266
:102770009F92AF92BF92CF92DF92EF92FF92CF9350
:10278000DF93EC01688179818A819B8161157105F4
:102790008105910521F464E279ED8BE597E02DE167
:1027A00033EF41E050E00E94691449015A019B0156
:1027B000AC01A7EAB1E40E9488146B017C01ACEE85
:1027C000B4EFA50194010E949614DC01CB018C0D9D
:1027D0009D1DAE1DBF1DB7FF03C00197A109B048E5
:1027E00088839983AA83BB839F77DF91CF91FF90E2
:1027F000EF90DF90CF90BF90AF909F908F90089513
:102800000C94B71386E092E00C94B713B0E0A0E00C
:102810008093060290930702A0930802B0930902E6
:102820000895FB01DC018D91019080190110D9F30D
:10283000990B0895FB01DC014150504048F0019094
:102840000D920020C9F701C01D9241505040E0F7A1
:1028500008954532510520F4423010F00C943414A0
:10286000FB011082CB010895BB274A3031F4992334
:1028700022F4BDE2909581959F4F0C944014BB27A4
:10288000FB015527AA27880F991FAA1FA41710F02C
:10289000A41B83955051B9F7A05DAA3308F0A95D38
:1028A000A193009779F7B111B1931192CB010C94D8
:1028B0005914DC01FC01672F71917723E1F73297FE
:1028C00004C07C916D9370836291AE17BF07C8F30B
:1028D0000895052E97FB1EF400940E94801457FD66
:1028E00007D00E949B1407FC03D04EF40C94801474
:1028F00050954095309521953F4F4F4F5F4F08952C
:1029000090958095709561957F4F8F4F9F4F08955B
:102910000E94BD14A59F900DB49F900DA49F800DA3
:10292000911D11240895B7FF0C9488140E948814F7
:10293000821B930B0895A1E21A2EAA1BBB1BFD015B
:102940000DC0AA1FBB1FEE1FFF1FA217B307E4078E
:10295000F50720F0A21BB30BE40BF50B661F771FE6
:10296000881F991F1A9469F76095709580959095C6
:102970009B01AC01BD01CF010895A29FB001B39F9F
:10298000C001A39F700D811D1124911DB29F700D78
:0C299000811D1124911D0895F894FFCFC3
:10299C00010000007A44010000004B4153414D42BC
:1029AC004120532E4D2E00466C6F6F723A00496ECB
:1029BC0076616C696420466C6F6F7200547279207A
:1029CC00416761696E00466C6F6F722069732046B7
:1029DC00756C6C00466C6F6F723A20004E616D65C1
:1029EC00205B6D61783D32305D3A005061737377D6
:1029FC006F7264205B6D61783D365D3A0054656E94
:102A0C00616E74206164646564004B6173616D6216
:102A1C006120532E4D2E0020696E206D616C6C2E42
:102A2C0000457363616C61746F72204F6E00457367
:102A3C0063616C61746F72204F66660054656E61E1
:102A4C006E74733A200055707374616972733A2016
:102A5C000054656E616E7427732049443A004E6FC2
:102A6C002054656E616E74204944200041736B20C4
:102A7C0052656E743F205B792F6E5D0052656E74EB
:102A8C002041646465640043616E63656C65642E0B
:102A9C002E2E004E6F20436F6D6D616E64210041D0
:102AAC00540D0A0041542B4E414D453D546865452B
:102ABC006D706F72696F0D0A0041542B50494E3D79
:102ACC00303030300D0A0041542B42415544340D06
:102ADC000A0041542B524F4C453D300D0A004154D5
:102AEC002B434D4F44453D310D0A0041542B41447D
:062AFC0044523F0D0A00E8
:00000001FF
